{
  "_format": "hh-sol-artifact-1",
  "contractName": "OrbitWinnerNFT",
  "sourceName": "contracts/OrbitWinnerNFT.sol",
  "abi": [
    {
      "inputs": [],
      "stateMutability": "nonpayable",
      "type": "constructor"
    },
    {
      "inputs": [
        {
          "internalType": "address",
          "name": "sender",
          "type": "address"
        },
        {
          "internalType": "uint256",
          "name": "tokenId",
          "type": "uint256"
        },
        {
          "internalType": "address",
          "name": "owner",
          "type": "address"
        }
      ],
      "name": "ERC721IncorrectOwner",
      "type": "error"
    },
    {
      "inputs": [
        {
          "internalType": "address",
          "name": "operator",
          "type": "address"
        },
        {
          "internalType": "uint256",
          "name": "tokenId",
          "type": "uint256"
        }
      ],
      "name": "ERC721InsufficientApproval",
      "type": "error"
    },
    {
      "inputs": [
        {
          "internalType": "address",
          "name": "approver",
          "type": "address"
        }
      ],
      "name": "ERC721InvalidApprover",
      "type": "error"
    },
    {
      "inputs": [
        {
          "internalType": "address",
          "name": "operator",
          "type": "address"
        }
      ],
      "name": "ERC721InvalidOperator",
      "type": "error"
    },
    {
      "inputs": [
        {
          "internalType": "address",
          "name": "owner",
          "type": "address"
        }
      ],
      "name": "ERC721InvalidOwner",
      "type": "error"
    },
    {
      "inputs": [
        {
          "internalType": "address",
          "name": "receiver",
          "type": "address"
        }
      ],
      "name": "ERC721InvalidReceiver",
      "type": "error"
    },
    {
      "inputs": [
        {
          "internalType": "address",
          "name": "sender",
          "type": "address"
        }
      ],
      "name": "ERC721InvalidSender",
      "type": "error"
    },
    {
      "inputs": [
        {
          "internalType": "uint256",
          "name": "tokenId",
          "type": "uint256"
        }
      ],
      "name": "ERC721NonexistentToken",
      "type": "error"
    },
    {
      "inputs": [
        {
          "internalType": "address",
          "name": "owner",
          "type": "address"
        }
      ],
      "name": "OwnableInvalidOwner",
      "type": "error"
    },
    {
      "inputs": [
        {
          "internalType": "address",
          "name": "account",
          "type": "address"
        }
      ],
      "name": "OwnableUnauthorizedAccount",
      "type": "error"
    },
    {
      "anonymous": false,
      "inputs": [
        {
          "indexed": true,
          "internalType": "address",
          "name": "owner",
          "type": "address"
        },
        {
          "indexed": true,
          "internalType": "address",
          "name": "approved",
          "type": "address"
        },
        {
          "indexed": true,
          "internalType": "uint256",
          "name": "tokenId",
          "type": "uint256"
        }
      ],
      "name": "Approval",
      "type": "event"
    },
    {
      "anonymous": false,
      "inputs": [
        {
          "indexed": true,
          "internalType": "address",
          "name": "owner",
          "type": "address"
        },
        {
          "indexed": true,
          "internalType": "address",
          "name": "operator",
          "type": "address"
        },
        {
          "indexed": false,
          "internalType": "bool",
          "name": "approved",
          "type": "bool"
        }
      ],
      "name": "ApprovalForAll",
      "type": "event"
    },
    {
      "anonymous": false,
      "inputs": [
        {
          "indexed": true,
          "internalType": "address",
          "name": "previousOwner",
          "type": "address"
        },
        {
          "indexed": true,
          "internalType": "address",
          "name": "newOwner",
          "type": "address"
        }
      ],
      "name": "OwnershipTransferred",
      "type": "event"
    },
    {
      "anonymous": false,
      "inputs": [
        {
          "indexed": true,
          "internalType": "address",
          "name": "from",
          "type": "address"
        },
        {
          "indexed": true,
          "internalType": "address",
          "name": "to",
          "type": "address"
        },
        {
          "indexed": true,
          "internalType": "uint256",
          "name": "tokenId",
          "type": "uint256"
        }
      ],
      "name": "Transfer",
      "type": "event"
    },
    {
      "anonymous": false,
      "inputs": [
        {
          "indexed": true,
          "internalType": "uint256",
          "name": "tokenId",
          "type": "uint256"
        },
        {
          "indexed": true,
          "internalType": "address",
          "name": "winner",
          "type": "address"
        },
        {
          "indexed": false,
          "internalType": "string",
          "name": "gameMode",
          "type": "string"
        },
        {
          "indexed": false,
          "internalType": "uint256",
          "name": "wagerAmount",
          "type": "uint256"
        }
      ],
      "name": "WinnerNFTMinted",
      "type": "event"
    },
    {
      "inputs": [
        {
          "internalType": "address",
          "name": "to",
          "type": "address"
        },
        {
          "internalType": "uint256",
          "name": "tokenId",
          "type": "uint256"
        }
      ],
      "name": "approve",
      "outputs": [],
      "stateMutability": "nonpayable",
      "type": "function"
    },
    {
      "inputs": [
        {
          "internalType": "address",
          "name": "owner",
          "type": "address"
        }
      ],
      "name": "balanceOf",
      "outputs": [
        {
          "internalType": "uint256",
          "name": "",
          "type": "uint256"
        }
      ],
      "stateMutability": "view",
      "type": "function"
    },
    {
      "inputs": [
        {
          "internalType": "uint256",
          "name": "tokenId",
          "type": "uint256"
        }
      ],
      "name": "getApproved",
      "outputs": [
        {
          "internalType": "address",
          "name": "",
          "type": "address"
        }
      ],
      "stateMutability": "view",
      "type": "function"
    },
    {
      "inputs": [
        {
          "internalType": "uint256",
          "name": "tokenId",
          "type": "uint256"
        }
      ],
      "name": "getWinnerData",
      "outputs": [
        {
          "components": [
            {
              "internalType": "address",
              "name": "winner",
              "type": "address"
            },
            {
              "internalType": "address",
              "name": "opponent",
              "type": "address"
            },
            {
              "internalType": "string",
              "name": "gameMode",
              "type": "string"
            },
            {
              "internalType": "uint256",
              "name": "wagerAmount",
              "type": "uint256"
            },
            {
              "internalType": "uint256",
              "name": "timestamp",
              "type": "uint256"
            },
            {
              "internalType": "string",
              "name": "gameScreenshot",
              "type": "string"
            }
          ],
          "internalType": "struct OrbitWinnerNFT.WinnerData",
          "name": "",
          "type": "tuple"
        }
      ],
      "stateMutability": "view",
      "type": "function"
    },
    {
      "inputs": [
        {
          "internalType": "address",
          "name": "owner",
          "type": "address"
        },
        {
          "internalType": "address",
          "name": "operator",
          "type": "address"
        }
      ],
      "name": "isApprovedForAll",
      "outputs": [
        {
          "internalType": "bool",
          "name": "",
          "type": "bool"
        }
      ],
      "stateMutability": "view",
      "type": "function"
    },
    {
      "inputs": [
        {
          "internalType": "address",
          "name": "winner",
          "type": "address"
        },
        {
          "internalType": "address",
          "name": "opponent",
          "type": "address"
        },
        {
          "internalType": "string",
          "name": "gameMode",
          "type": "string"
        },
        {
          "internalType": "uint256",
          "name": "wagerAmount",
          "type": "uint256"
        },
        {
          "internalType": "string",
          "name": "screenshotHash",
          "type": "string"
        }
      ],
      "name": "mintWinnerNFT",
      "outputs": [
        {
          "internalType": "uint256",
          "name": "",
          "type": "uint256"
        }
      ],
      "stateMutability": "nonpayable",
      "type": "function"
    },
    {
      "inputs": [],
      "name": "name",
      "outputs": [
        {
          "internalType": "string",
          "name": "",
          "type": "string"
        }
      ],
      "stateMutability": "view",
      "type": "function"
    },
    {
      "inputs": [],
      "name": "owner",
      "outputs": [
        {
          "internalType": "address",
          "name": "",
          "type": "address"
        }
      ],
      "stateMutability": "view",
      "type": "function"
    },
    {
      "inputs": [
        {
          "internalType": "uint256",
          "name": "tokenId",
          "type": "uint256"
        }
      ],
      "name": "ownerOf",
      "outputs": [
        {
          "internalType": "address",
          "name": "",
          "type": "address"
        }
      ],
      "stateMutability": "view",
      "type": "function"
    },
    {
      "inputs": [],
      "name": "renounceOwnership",
      "outputs": [],
      "stateMutability": "nonpayable",
      "type": "function"
    },
    {
      "inputs": [
        {
          "internalType": "address",
          "name": "from",
          "type": "address"
        },
        {
          "internalType": "address",
          "name": "to",
          "type": "address"
        },
        {
          "internalType": "uint256",
          "name": "tokenId",
          "type": "uint256"
        }
      ],
      "name": "safeTransferFrom",
      "outputs": [],
      "stateMutability": "nonpayable",
      "type": "function"
    },
    {
      "inputs": [
        {
          "internalType": "address",
          "name": "from",
          "type": "address"
        },
        {
          "internalType": "address",
          "name": "to",
          "type": "address"
        },
        {
          "internalType": "uint256",
          "name": "tokenId",
          "type": "uint256"
        },
        {
          "internalType": "bytes",
          "name": "data",
          "type": "bytes"
        }
      ],
      "name": "safeTransferFrom",
      "outputs": [],
      "stateMutability": "nonpayable",
      "type": "function"
    },
    {
      "inputs": [
        {
          "internalType": "address",
          "name": "operator",
          "type": "address"
        },
        {
          "internalType": "bool",
          "name": "approved",
          "type": "bool"
        }
      ],
      "name": "setApprovalForAll",
      "outputs": [],
      "stateMutability": "nonpayable",
      "type": "function"
    },
    {
      "inputs": [
        {
          "internalType": "string",
          "name": "newBaseURI",
          "type": "string"
        }
      ],
      "name": "setBaseURI",
      "outputs": [],
      "stateMutability": "nonpayable",
      "type": "function"
    },
    {
      "inputs": [
        {
          "internalType": "bytes4",
          "name": "interfaceId",
          "type": "bytes4"
        }
      ],
      "name": "supportsInterface",
      "outputs": [
        {
          "internalType": "bool",
          "name": "",
          "type": "bool"
        }
      ],
      "stateMutability": "view",
      "type": "function"
    },
    {
      "inputs": [],
      "name": "symbol",
      "outputs": [
        {
          "internalType": "string",
          "name": "",
          "type": "string"
        }
      ],
      "stateMutability": "view",
      "type": "function"
    },
    {
      "inputs": [
        {
          "internalType": "uint256",
          "name": "tokenId",
          "type": "uint256"
        }
      ],
      "name": "tokenURI",
      "outputs": [
        {
          "internalType": "string",
          "name": "",
          "type": "string"
        }
      ],
      "stateMutability": "view",
      "type": "function"
    },
    {
      "inputs": [],
      "name": "totalSupply",
      "outputs": [
        {
          "internalType": "uint256",
          "name": "",
          "type": "uint256"
        }
      ],
      "stateMutability": "view",
      "type": "function"
    },
    {
      "inputs": [
        {
          "internalType": "address",
          "name": "from",
          "type": "address"
        },
        {
          "internalType": "address",
          "name": "to",
          "type": "address"
        },
        {
          "internalType": "uint256",
          "name": "tokenId",
          "type": "uint256"
        }
      ],
      "name": "transferFrom",
      "outputs": [],
      "stateMutability": "nonpayable",
      "type": "function"
    },
    {
      "inputs": [
        {
          "internalType": "address",
          "name": "newOwner",
          "type": "address"
        }
      ],
      "name": "transferOwnership",
      "outputs": [],
      "stateMutability": "nonpayable",
      "type": "function"
    },
    {
      "inputs": [
        {
          "internalType": "uint256",
          "name": "",
          "type": "uint256"
        }
      ],
      "name": "winnerData",
      "outputs": [
        {
          "internalType": "address",
          "name": "winner",
          "type": "address"
        },
        {
          "internalType": "address",
          "name": "opponent",
          "type": "address"
        },
        {
          "internalType": "string",
          "name": "gameMode",
          "type": "string"
        },
        {
          "internalType": "uint256",
          "name": "wagerAmount",
          "type": "uint256"
        },
        {
          "internalType": "uint256",
          "name": "timestamp",
          "type": "uint256"
        },
        {
          "internalType": "string",
          "name": "gameScreenshot",
          "type": "string"
        }
      ],
      "stateMutability": "view",
      "type": "function"
    }
  ],
  "bytecode": "0x6080346200034d576040906001600160401b03908083018281118282101762000337578352600c81526020906b27b93134ba102bb4b73732b960a11b8282015283518481018181108582111762000337578552600981526827a92124aa16aba4a760b91b8382015281519380851162000337576000948062000082875462000352565b94601f9586811162000307575b5086908683116001146200029f57889262000293575b50508160011b916000199060031b1c19161785555b81519081116200027f5780600192620000d4845462000352565b85811162000244575b508590858311600114620001e0578792620001d4575b5050600019600383901b1c191690821b1790555b3315620001bc5760068054336001600160a01b0319821681179092556001600160a01b03167f8be0079c531659141344cd1fd0a4f28419497f9722a3daafe3b4186f6b6457e08580a36200015d60085462000352565b918183116200019a575b7f68747470733a2f2f6f726269742e6170702f6170692f6e66742f0000000000346008558451611c8b9081620003a98239f35b836008620001b2955220910160051c8101906200038f565b3880808062000167565b8351631e4fbdf760e01b815260048101849052602490fd5b015190503880620000f3565b8488528688208594509190601f198416895b898282106200022d575050841162000213575b505050811b01905562000107565b015160001960f88460031b161c1916905538808062000205565b8385015186558897909501949384019301620001f2565b6200026e908589528789208780860160051c8201928a871062000275575b0160051c01906200038f565b38620000dd565b9250819262000262565b634e487b7160e01b85526041600452602485fd5b015190503880620000a5565b8880528789209250601f198416895b89828210620002f0575050908460019594939210620002d6575b505050811b018555620000ba565b015160001960f88460031b161c19169055388080620002c8565b6001859682939686015181550195019301620002ae565b6200033090898052888a208880860160051c8201928b871062000275570160051c01906200038f565b386200008f565b634e487b7160e01b600052604160045260246000fd5b600080fd5b90600182811c9216801562000384575b60208310146200036e57565b634e487b7160e01b600052602260045260246000fd5b91607f169162000362565b8181106200039b575050565b600081556001016200038f56fe608080604052600436101561001357600080fd5b60003560e01c90816301ffc9a7146113035750806306fdde0314611260578063081812fc14611222578063095ea7b31461113b57806318160ddd1461111d57806323b872dd1461110657806342842e0e146110d857806355f804b314610f5e5780636352211e14610f2e57806370a0823114610ed5578063715018a614610e785780638da5cb5b14610e4f57806395d89b4114610d70578063a22cb46514610ccb578063b88d4fde14610c5d578063c3b34a4014610656578063c87b56dd146103a9578063d58a0e1214610287578063e985e9c514610231578063f2fde38b146101a35763f4025aab1461010657600080fd5b3461019e57602036600319011261019e576004356000526009602052604060002060018060a01b0361019a8183541691600184015416926101496002820161151c565b60038201549161018261016360056004840154930161151c565b926040519788978852602088015260c0604088015260c0870190611391565b926060860152608085015283820360a0850152611391565b0390f35b600080fd5b3461019e57602036600319011261019e576101bc6113b6565b6101c46115c2565b6001600160a01b0390811690811561021857600654826bffffffffffffffffffffffff60a01b821617600655167f8be0079c531659141344cd1fd0a4f28419497f9722a3daafe3b4186f6b6457e0600080a3005b604051631e4fbdf760e01b815260006004820152602490fd5b3461019e57604036600319011261019e5761024a6113b6565b6102526113cc565b9060018060a01b03809116600052600560205260406000209116600052602052602060ff604060002054166040519015158152f35b3461019e5760208060031936011261019e5760043590606060a06040516102ad81611417565b60008152600084820152826040820152600083820152600060808201520152816000526002815260018060a01b03916102ee83604060002054161515611922565b6000526009815261019a60406000206040519261030a84611417565b848254168452846001830154169181850192835261038a61032d6002830161151c565b60408701908152876003840154956060890196875261035a600560048701549660808c019788520161151c565b9560a08a019687526040519a8b9a828c525116908a0152511660408801525160c0606088015260e0870190611391565b925160808601525160a085015251838203601f190160c0850152611391565b3461019e5760208060031936011261019e5760043590816000526002815260018060a01b036103e081604060002054161515611922565b8260005260098252604060002092604051906103fb82611417565b82855416825281600195848782015416948683019586526104876104806104776104276002860161151c565b936040870194855261046f8161046761045a600560038b01549a60608d019b8c52608060048201549d019c8d520161151c565b9a60a08d019b8c52611965565b9a5116611af4565b995116611af4565b92519351611965565b9351611965565b93519587604051998a97600091600854906104a1826114e2565b9181811690811561063957506001146105d8575b505091816104d58460369b9a9896946105c49d9a9896519485920161136e565b01673f77696e6e65723d60c01b81526104f7825180938d60088501910161136e565b0169266f70706f6e656e743d60b01b600882015261051e825180938c60128501910161136e565b01652667616d653d60d01b6012820152610541825180938b60188501910161136e565b01662677616765723d60c81b6018820152610565825180938a601f8501910161136e565b016a2674696d657374616d703d60a81b601f82015261058d8251809389602a8501910161136e565b016b2673637265656e73686f743d60a01b602a8201526105b58251809388878501910161136e565b0103601681018552018361144f565b61019a604051928284938452830190611391565b9091925060086000527ff3f7a9fe364faab93b216da50a3214154f22a0a2b415b23a84c8169e8b636ee3906000915b83831061061f575050508801820190806104d56104b5565b80549b830186019b909b528d9a8d95909201918101610607565b60ff1916868d0152505080151502890183019150806104d56104b5565b3461019e5760a036600319011261019e5761066f6113b6565b6106776113cc565b60443567ffffffffffffffff811161019e576106979036906004016114c4565b60843567ffffffffffffffff811161019e576106b79036906004016114c4565b916106c06115c2565b600754926106cd846118fd565b600755604051906106dd82611417565b6001600160a01b03868116835292831660208084019182526040808501878152606435606087015242608087015260a0860194909452600088815260099092529020835181549086166001600160a01b03199182161782559151600182018054919096169216919091179093555180519067ffffffffffffffff8211610b845761076a60028501546114e2565b601f8111610c16575b50602090601f8311600114610ba55760a093929160009183610b9a575b50508160011b916000199060031b1c19161760028401555b6060810151600384015560808101516004840155015180519067ffffffffffffffff8211610b84576107dd60058401546114e2565b601f8111610b3d575b50602090601f8311600114610acf576005929160009183610ac4575b50508160011b916000199060031b1c1916179101555b60405161082481611433565b600081526001600160a01b03841615610aab576000838152600260205260409020546001600160a01b031680151590849082610a74575b6001600160a01b0387166000818152600360209081526040808320805460010190558583526002909152812080546001600160a01b031916831790559091907fddf252ad1be2c89b69c2b068fc378daa952ba7f163c4a11628f55a4df523b3ef9080a4610a5b57833b610925575b5091817ff65f8af45d2c7b79a3f8a4ca6a7769347f5c993567035809652d932123642a00610907602095604051918291604083526040830190611391565b606435828901526001600160a01b03909516940390a3604051908152f35b6040516020818061095f630a85bd0160e11b9586835233600484015260006024840152886044840152608060648401526084830190611391565b038160006001600160a01b038a165af160009181610a16575b506109e057843d156109d8573d9061098f82611471565b9161099d604051938461144f565b82523d6000602084013e5b815191826109d157604051633250574960e11b81526001600160a01b0383166004820152602490fd5b6020915001fd5b6060906109a8565b6001600160e01b031916036109f557816108c9565b604051633250574960e11b81526001600160a01b0384166004820152602490fd5b9091506020813d602011610a53575b81610a326020938361144f565b8101031261019e57516001600160e01b03198116810361019e579086610978565b3d9150610a25565b6040516339e3563760e11b815260006004820152602490fd5b600082815260046020526040902080546001600160a01b03191690558060005260036020526040600020600019815401905561085b565b604051633250574960e11b815260006004820152602490fd5b015190508780610802565b90601f198316916005850160005260206000209260005b818110610b2557509160019391856005969410610b0c575b505050811b01910155610818565b015160001960f88460031b161c19169055878080610afe565b92936020600181928786015181550195019301610ae6565b600584016000526020600020601f840160051c810160208510610b7d575b601f830160051c82018110610b715750506107e6565b60008155600101610b5b565b5080610b5b565b634e487b7160e01b600052604160045260246000fd5b015190508880610790565b90601f198316916002860160005260206000209260005b818110610bfe575091600193918560a097969410610be5575b505050811b0160028401556107a8565b015160001960f88460031b161c19169055888080610bd5565b92936020600181928786015181550195019301610bbc565b600285016000526020600020601f840160051c810160208510610c56575b601f830160051c82018110610c4a575050610773565b60008155600101610c34565b5080610c34565b3461019e57608036600319011261019e57610c766113b6565b610c7e6113cc565b906044356064359267ffffffffffffffff841161019e573660238501121561019e57610cb7610cc994369060248160040135910161148d565b92610cc38383836115ee565b336117af565b005b3461019e57604036600319011261019e57610ce46113b6565b6024359081151580920361019e576001600160a01b0316908115610d5757336000526005602052604060002082600052602052604060002060ff1981541660ff83161790556040519081527f17307eab39ab6107e8899845ad3d59bd9653f200f220920489ca2b5937696c3160203392a3005b604051630b61174360e31b815260048101839052602490fd5b3461019e57600036600319011261019e5760405160006001805490610d94826114e2565b80855291818116908115610e285750600114610dcf575b61019a84610dbb8186038261144f565b604051918291602083526020830190611391565b600081815292507fb10e2d527612073b26eecdfd717e6a320cf44b4afac2b0732d9fcbe2b7fa0cf65b828410610e10575050508101602001610dbb82610dab565b80546020858701810191909152909301928101610df8565b60ff191660208087019190915292151560051b85019092019250610dbb9150839050610dab565b3461019e57600036600319011261019e576006546040516001600160a01b039091168152602090f35b3461019e57600036600319011261019e57610e916115c2565b600680546001600160a01b031981169091556000906001600160a01b03167f8be0079c531659141344cd1fd0a4f28419497f9722a3daafe3b4186f6b6457e08280a3005b3461019e57602036600319011261019e576001600160a01b03610ef66113b6565b168015610f155760005260036020526020604060002054604051908152f35b6040516322718ad960e21b815260006004820152602490fd5b3461019e57602036600319011261019e576020610f4c600435611774565b6040516001600160a01b039091168152f35b3461019e5760208060031936011261019e5767ffffffffffffffff60043581811161019e57610f919036906004016114c4565b91610f9a6115c2565b8251918211610b8457610fae6008546114e2565b601f8111611074575b5080601f8311600114610ff357508192600092610fe8575b5050600019600383901b1c191660019190911b17600855005b015190508280610fcf565b90601f1983169360086000527ff3f7a9fe364faab93b216da50a3214154f22a0a2b415b23a84c8169e8b636ee3926000905b86821061105c5750508360019510611043575b505050811b01600855005b015160001960f88460031b161c19169055828080611038565b80600185968294968601518155019501930190611025565b60086000527ff3f7a9fe364faab93b216da50a3214154f22a0a2b415b23a84c8169e8b636ee3601f840160051c8101918385106110ce575b601f0160051c01905b8181106110c25750610fb7565b600081556001016110b5565b90915081906110ac565b3461019e57610cc96110e9366113e2565b90604051926110f784611433565b60008452610cc38383836115ee565b3461019e57610cc9611117366113e2565b916115ee565b3461019e57600036600319011261019e576020600754604051908152f35b3461019e57604036600319011261019e576111546113b6565b60243561116081611774565b3315158061120f575b806111e2575b6111ca576001600160a01b039283169282918491167f8c5be1e5ebec7d5bd14f71427d1e84f3dd0314c0f7b2291e5b200ac8c7c3b925600080a4600090815260046020526040902080546001600160a01b0319169091179055005b60405163a9fbf51f60e01b8152336004820152602490fd5b5060018060a01b038116600052600560205260406000203360005260205260ff604060002054161561116f565b506001600160a01b038116331415611169565b3461019e57602036600319011261019e5760043561123f81611774565b506000526004602052602060018060a01b0360406000205416604051908152f35b3461019e57600036600319011261019e5760405160008054611281816114e2565b80845290600190818116908115610e2857506001146112aa5761019a84610dbb8186038261144f565b600080805292507f290decd9548b62a8d60345a988386fc84ba6bc95484008f6362f93160ef3e5635b8284106112eb575050508101602001610dbb82610dab565b805460208587018101919091529093019281016112d3565b3461019e57602036600319011261019e576004359063ffffffff60e01b821680920361019e576020916380ac58cd60e01b811490811561135d575b811561134c575b5015158152f35b6301ffc9a760e01b14905083611345565b635b5e139f60e01b8114915061133e565b60005b8381106113815750506000910152565b8181015183820152602001611371565b906020916113aa8151809281855285808601910161136e565b601f01601f1916010190565b600435906001600160a01b038216820361019e57565b602435906001600160a01b038216820361019e57565b606090600319011261019e576001600160a01b0390600435828116810361019e5791602435908116810361019e579060443590565b60c0810190811067ffffffffffffffff821117610b8457604052565b6020810190811067ffffffffffffffff821117610b8457604052565b90601f8019910116810190811067ffffffffffffffff821117610b8457604052565b67ffffffffffffffff8111610b8457601f01601f191660200190565b92919261149982611471565b916114a7604051938461144f565b82948184528183011161019e578281602093846000960137010152565b9080601f8301121561019e578160206114df9335910161148d565b90565b90600182811c92168015611512575b60208310146114fc57565b634e487b7160e01b600052602260045260246000fd5b91607f16916114f1565b9060405191826000825492611530846114e2565b90818452600194858116908160001461159f575060011461155c575b505061155a9250038361144f565b565b9093915060005260209081600020936000915b81831061158757505061155a9350820101388061154c565b8554888401850152948501948794509183019161156f565b91505061155a94506020925060ff191682840152151560051b820101388061154c565b6006546001600160a01b031633036115d657565b60405163118cdaa760e01b8152336004820152602490fd5b6001600160a01b039182169290918315610aab576000928284528260209560028752604096848888205416968791331515806116de575b509060027fddf252ad1be2c89b69c2b068fc378daa952ba7f163c4a11628f55a4df523b3ef92846116ab575b858352600381528b8320805460010190558683525289812080546001600160a01b0319168517905580a4169283830361168a5750505050565b6064945051926364283d7b60e01b8452600484015260248301526044820152fd5b600087815260046020526040902080546001600160a01b0319169055848352600381528b83208054600019019055611651565b91939450915080611733575b156116fa57859291879138611625565b878688611717576024915190637e27328960e01b82526004820152fd5b604491519063177e802f60e01b82523360048301526024820152fd5b503387148015611758575b806116ea57508582526004815233858984205416146116ea565b5086825260058152878220338352815260ff888320541661173e565b6000818152600260205260409020546001600160a01b0316908115611797575090565b60249060405190637e27328960e01b82526004820152fd5b90939192833b6117c1575b5050505050565b604051630a85bd0160e11b8082526001600160a01b03938416600483015295831660248201526044810191909152608060648201529492169260209291859061180e906084830190611391565b039483816000978189895af18691816118b9575b50611883575050503d60001461187a573d61183c81611471565b9061184a604051928361144f565b81528093823d92013e5b8251928361187557604051633250574960e11b815260048101849052602490fd5b019050fd5b60609250611854565b919450915063ffffffff60e01b16036118a1575038808080806117ba565b60249060405190633250574960e11b82526004820152fd5b9091508481813d83116118f6575b6118d1818361144f565b810103126118f257516001600160e01b0319811681036118f2579038611822565b8680fd5b503d6118c7565b600019811461190c5760010190565b634e487b7160e01b600052601160045260246000fd5b1561192957565b60405162461bcd60e51b8152602060048201526014602482015273151bdad95b88191bd95cc81b9bdd08195e1a5cdd60621b6044820152606490fd5b806000917a184f03e93ff9f4daa797ed6e38ed64bf6a1f01000000000000000080821015611abf575b506d04ee2d6d415b85acef810000000080831015611ab0575b50662386f26fc1000080831015611aa1575b506305f5e10080831015611a92575b5061271080831015611a83575b506064821015611a73575b600a80921015611a69575b600190816021818601956119fe87611471565b96611a0c604051988961144f565b808852611a1b601f1991611471565b01366020890137860101905b611a33575b5050505090565b600019019083906f181899199a1a9b1b9c1cb0b131b232b360811b8282061a835304918215611a6457919082611a27565b611a2c565b91600101916119eb565b91906064600291049101916119e0565b600491939204910191386119d5565b600891939204910191386119c8565b601091939204910191386119b9565b602091939204910191386119a7565b60409350810491503861198e565b908151811015611ade570160200190565b634e487b7160e01b600052603260045260246000fd5b6040805167ffffffffffffffff926001600160a01b0316919080820184811182821017610b84578252601081526020916f181899199a1a9b1b9c1cb0b131b232b360811b83830152805194606086019086821090821117610b84578152602a855282850190368237845115611ade5760309053835192600193841015611ade576078602186015360005b60148110611b8e57505050505090565b600c810180821161190c5784811015611ade5782901a60046001600160f81b0319600f81611bc085851c831689611acd565b511693858a1b94600290878704821488151715611c4057868201809211611c4057611bf5611bfd9493928e9260001a92611acd565b531687611acd565b5116906003928301809311611c2b575090611c20611c26939260001a9189611acd565b536118fd565b611b7e565b601190634e487b7160e01b6000525260246000fd5b601186634e487b7160e01b6000525260246000fdfea2646970667358221220e5f33cade0dd87d1afd1d2a05c063b942ed60946ca97cf540dae20a44b6801db64736f6c63430008140033",
  "linkReferences": {},
  "deployedLinkReferences": {}
}