{"contracts/OrbitWinnerNFT.sol":{"OrbitWinnerNFT":{"abi":[{"inputs":[],"stateMutability":"nonpayable","type":"constructor"},{"inputs":[{"internalType":"address","name":"sender","type":"address"},{"internalType":"uint256","name":"tokenId","type":"uint256"},{"internalType":"address","name":"owner","type":"address"}],"name":"ERC721IncorrectOwner","type":"error"},{"inputs":[{"internalType":"address","name":"operator","type":"address"},{"internalType":"uint256","name":"tokenId","type":"uint256"}],"name":"ERC721InsufficientApproval","type":"error"},{"inputs":[{"internalType":"address","name":"approver","type":"address"}],"name":"ERC721InvalidApprover","type":"error"},{"inputs":[{"internalType":"address","name":"operator","type":"address"}],"name":"ERC721InvalidOperator","type":"error"},{"inputs":[{"internalType":"address","name":"owner","type":"address"}],"name":"ERC721InvalidOwner","type":"error"},{"inputs":[{"internalType":"address","name":"receiver","type":"address"}],"name":"ERC721InvalidReceiver","type":"error"},{"inputs":[{"internalType":"address","name":"sender","type":"address"}],"name":"ERC721InvalidSender","type":"error"},{"inputs":[{"internalType":"uint256","name":"tokenId","type":"uint256"}],"name":"ERC721NonexistentToken","type":"error"},{"inputs":[{"internalType":"address","name":"owner","type":"address"}],"name":"OwnableInvalidOwner","type":"error"},{"inputs":[{"internalType":"address","name":"account","type":"address"}],"name":"OwnableUnauthorizedAccount","type":"error"},{"anonymous":false,"inputs":[{"indexed":true,"internalType":"address","name":"owner","type":"address"},{"indexed":true,"internalType":"address","name":"approved","type":"address"},{"indexed":true,"internalType":"uint256","name":"tokenId","type":"uint256"}],"name":"Approval","type":"event"},{"anonymous":false,"inputs":[{"indexed":true,"internalType":"address","name":"owner","type":"address"},{"indexed":true,"internalType":"address","name":"operator","type":"address"},{"indexed":false,"internalType":"bool","name":"approved","type":"bool"}],"name":"ApprovalForAll","type":"event"},{"anonymous":false,"inputs":[{"indexed":true,"internalType":"address","name":"previousOwner","type":"address"},{"indexed":true,"internalType":"address","name":"newOwner","type":"address"}],"name":"OwnershipTransferred","type":"event"},{"anonymous":false,"inputs":[{"indexed":true,"internalType":"address","name":"from","type":"address"},{"indexed":true,"internalType":"address","name":"to","type":"address"},{"indexed":true,"internalType":"uint256","name":"tokenId","type":"uint256"}],"name":"Transfer","type":"event"},{"anonymous":false,"inputs":[{"indexed":true,"internalType":"uint256","name":"tokenId","type":"uint256"},{"indexed":true,"internalType":"address","name":"winner","type":"address"},{"indexed":false,"internalType":"string","name":"gameMode","type":"string"},{"indexed":false,"internalType":"uint256","name":"wagerAmount","type":"uint256"}],"name":"WinnerNFTMinted","type":"event"},{"inputs":[{"internalType":"address","name":"to","type":"address"},{"internalType":"uint256","name":"tokenId","type":"uint256"}],"name":"approve","outputs":[],"stateMutability":"nonpayable","type":"function"},{"inputs":[{"internalType":"address","name":"owner","type":"address"}],"name":"balanceOf","outputs":[{"internalType":"uint256","name":"","type":"uint256"}],"stateMutability":"view","type":"function"},{"inputs":[{"internalType":"uint256","name":"tokenId","type":"uint256"}],"name":"getApproved","outputs":[{"internalType":"address","name":"","type":"address"}],"stateMutability":"view","type":"function"},{"inputs":[{"internalType":"uint256","name":"tokenId","type":"uint256"}],"name":"getWinnerData","outputs":[{"components":[{"internalType":"address","name":"winner","type":"address"},{"internalType":"address","name":"opponent","type":"address"},{"internalType":"string","name":"gameMode","type":"string"},{"internalType":"uint256","name":"wagerAmount","type":"uint256"},{"internalType":"uint256","name":"timestamp","type":"uint256"},{"internalType":"string","name":"gameScreenshot","type":"string"}],"internalType":"struct OrbitWinnerNFT.WinnerData","name":"","type":"tuple"}],"stateMutability":"view","type":"function"},{"inputs":[{"internalType":"address","name":"owner","type":"address"},{"internalType":"address","name":"operator","type":"address"}],"name":"isApprovedForAll","outputs":[{"internalType":"bool","name":"","type":"bool"}],"stateMutability":"view","type":"function"},{"inputs":[{"internalType":"address","name":"winner","type":"address"},{"internalType":"address","name":"opponent","type":"address"},{"internalType":"string","name":"gameMode","type":"string"},{"internalType":"uint256","name":"wagerAmount","type":"uint256"},{"internalType":"string","name":"screenshotHash","type":"string"}],"name":"mintWinnerNFT","outputs":[{"internalType":"uint256","name":"","type":"uint256"}],"stateMutability":"nonpayable","type":"function"},{"inputs":[],"name":"name","outputs":[{"internalType":"string","name":"","type":"string"}],"stateMutability":"view","type":"function"},{"inputs":[],"name":"owner","outputs":[{"internalType":"address","name":"","type":"address"}],"stateMutability":"view","type":"function"},{"inputs":[{"internalType":"uint256","name":"tokenId","type":"uint256"}],"name":"ownerOf","outputs":[{"internalType":"address","name":"","type":"address"}],"stateMutability":"view","type":"function"},{"inputs":[],"name":"renounceOwnership","outputs":[],"stateMutability":"nonpayable","type":"function"},{"inputs":[{"internalType":"address","name":"from","type":"address"},{"internalType":"address","name":"to","type":"address"},{"internalType":"uint256","name":"tokenId","type":"uint256"}],"name":"safeTransferFrom","outputs":[],"stateMutability":"nonpayable","type":"function"},{"inputs":[{"internalType":"address","name":"from","type":"address"},{"internalType":"address","name":"to","type":"address"},{"internalType":"uint256","name":"tokenId","type":"uint256"},{"internalType":"bytes","name":"data","type":"bytes"}],"name":"safeTransferFrom","outputs":[],"stateMutability":"nonpayable","type":"function"},{"inputs":[{"internalType":"address","name":"operator","type":"address"},{"internalType":"bool","name":"approved","type":"bool"}],"name":"setApprovalForAll","outputs":[],"stateMutability":"nonpayable","type":"function"},{"inputs":[{"internalType":"string","name":"newBaseURI","type":"string"}],"name":"setBaseURI","outputs":[],"stateMutability":"nonpayable","type":"function"},{"inputs":[{"internalType":"bytes4","name":"interfaceId","type":"bytes4"}],"name":"supportsInterface","outputs":[{"internalType":"bool","name":"","type":"bool"}],"stateMutability":"view","type":"function"},{"inputs":[],"name":"symbol","outputs":[{"internalType":"string","name":"","type":"string"}],"stateMutability":"view","type":"function"},{"inputs":[{"internalType":"uint256","name":"tokenId","type":"uint256"}],"name":"tokenURI","outputs":[{"internalType":"string","name":"","type":"string"}],"stateMutability":"view","type":"function"},{"inputs":[],"name":"totalSupply","outputs":[{"internalType":"uint256","name":"","type":"uint256"}],"stateMutability":"view","type":"function"},{"inputs":[{"internalType":"address","name":"from","type":"address"},{"internalType":"address","name":"to","type":"address"},{"internalType":"uint256","name":"tokenId","type":"uint256"}],"name":"transferFrom","outputs":[],"stateMutability":"nonpayable","type":"function"},{"inputs":[{"internalType":"address","name":"newOwner","type":"address"}],"name":"transferOwnership","outputs":[],"stateMutability":"nonpayable","type":"function"},{"inputs":[{"internalType":"uint256","name":"","type":"uint256"}],"name":"winnerData","outputs":[{"internalType":"address","name":"winner","type":"address"},{"internalType":"address","name":"opponent","type":"address"},{"internalType":"string","name":"gameMode","type":"string"},{"internalType":"uint256","name":"wagerAmount","type":"uint256"},{"internalType":"uint256","name":"timestamp","type":"uint256"},{"internalType":"string","name":"gameScreenshot","type":"string"}],"stateMutability":"view","type":"function"}],"evm":{"bytecode":{"linkReferences":{},"object":"6080346200034d576040906001600160401b03908083018281118282101762000337578352600c81526020906b27b93134ba102bb4b73732b960a11b8282015283518481018181108582111762000337578552600981526827a92124aa16aba4a760b91b8382015281519380851162000337576000948062000082875462000352565b94601f9586811162000307575b5086908683116001146200029f57889262000293575b50508160011b916000199060031b1c19161785555b81519081116200027f5780600192620000d4845462000352565b85811162000244575b508590858311600114620001e0578792620001d4575b5050600019600383901b1c191690821b1790555b3315620001bc5760068054336001600160a01b0319821681179092556001600160a01b03167f8be0079c531659141344cd1fd0a4f28419497f9722a3daafe3b4186f6b6457e08580a36200015d60085462000352565b918183116200019a575b7f68747470733a2f2f6f726269742e6170702f6170692f6e66742f0000000000346008558451611c8b9081620003a98239f35b836008620001b2955220910160051c8101906200038f565b3880808062000167565b8351631e4fbdf760e01b815260048101849052602490fd5b015190503880620000f3565b8488528688208594509190601f198416895b898282106200022d575050841162000213575b505050811b01905562000107565b015160001960f88460031b161c1916905538808062000205565b8385015186558897909501949384019301620001f2565b6200026e908589528789208780860160051c8201928a871062000275575b0160051c01906200038f565b38620000dd565b9250819262000262565b634e487b7160e01b85526041600452602485fd5b015190503880620000a5565b8880528789209250601f198416895b89828210620002f0575050908460019594939210620002d6575b505050811b018555620000ba565b015160001960f88460031b161c19169055388080620002c8565b6001859682939686015181550195019301620002ae565b6200033090898052888a208880860160051c8201928b871062000275570160051c01906200038f565b386200008f565b634e487b7160e01b600052604160045260246000fd5b600080fd5b90600182811c9216801562000384575b60208310146200036e57565b634e487b7160e01b600052602260045260246000fd5b91607f169162000362565b8181106200039b575050565b600081556001016200038f56fe608080604052600436101561001357600080fd5b60003560e01c90816301ffc9a7146113035750806306fdde0314611260578063081812fc14611222578063095ea7b31461113b57806318160ddd1461111d57806323b872dd1461110657806342842e0e146110d857806355f804b314610f5e5780636352211e14610f2e57806370a0823114610ed5578063715018a614610e785780638da5cb5b14610e4f57806395d89b4114610d70578063a22cb46514610ccb578063b88d4fde14610c5d578063c3b34a4014610656578063c87b56dd146103a9578063d58a0e1214610287578063e985e9c514610231578063f2fde38b146101a35763f4025aab1461010657600080fd5b3461019e57602036600319011261019e576004356000526009602052604060002060018060a01b0361019a8183541691600184015416926101496002820161151c565b60038201549161018261016360056004840154930161151c565b926040519788978852602088015260c0604088015260c0870190611391565b926060860152608085015283820360a0850152611391565b0390f35b600080fd5b3461019e57602036600319011261019e576101bc6113b6565b6101c46115c2565b6001600160a01b0390811690811561021857600654826bffffffffffffffffffffffff60a01b821617600655167f8be0079c531659141344cd1fd0a4f28419497f9722a3daafe3b4186f6b6457e0600080a3005b604051631e4fbdf760e01b815260006004820152602490fd5b3461019e57604036600319011261019e5761024a6113b6565b6102526113cc565b9060018060a01b03809116600052600560205260406000209116600052602052602060ff604060002054166040519015158152f35b3461019e5760208060031936011261019e5760043590606060a06040516102ad81611417565b60008152600084820152826040820152600083820152600060808201520152816000526002815260018060a01b03916102ee83604060002054161515611922565b6000526009815261019a60406000206040519261030a84611417565b848254168452846001830154169181850192835261038a61032d6002830161151c565b60408701908152876003840154956060890196875261035a600560048701549660808c019788520161151c565b9560a08a019687526040519a8b9a828c525116908a0152511660408801525160c0606088015260e0870190611391565b925160808601525160a085015251838203601f190160c0850152611391565b3461019e5760208060031936011261019e5760043590816000526002815260018060a01b036103e081604060002054161515611922565b8260005260098252604060002092604051906103fb82611417565b82855416825281600195848782015416948683019586526104876104806104776104276002860161151c565b936040870194855261046f8161046761045a600560038b01549a60608d019b8c52608060048201549d019c8d520161151c565b9a60a08d019b8c52611965565b9a5116611af4565b995116611af4565b92519351611965565b9351611965565b93519587604051998a97600091600854906104a1826114e2565b9181811690811561063957506001146105d8575b505091816104d58460369b9a9896946105c49d9a9896519485920161136e565b01673f77696e6e65723d60c01b81526104f7825180938d60088501910161136e565b0169266f70706f6e656e743d60b01b600882015261051e825180938c60128501910161136e565b01652667616d653d60d01b6012820152610541825180938b60188501910161136e565b01662677616765723d60c81b6018820152610565825180938a601f8501910161136e565b016a2674696d657374616d703d60a81b601f82015261058d8251809389602a8501910161136e565b016b2673637265656e73686f743d60a01b602a8201526105b58251809388878501910161136e565b0103601681018552018361144f565b61019a604051928284938452830190611391565b9091925060086000527ff3f7a9fe364faab93b216da50a3214154f22a0a2b415b23a84c8169e8b636ee3906000915b83831061061f575050508801820190806104d56104b5565b80549b830186019b909b528d9a8d95909201918101610607565b60ff1916868d0152505080151502890183019150806104d56104b5565b3461019e5760a036600319011261019e5761066f6113b6565b6106776113cc565b60443567ffffffffffffffff811161019e576106979036906004016114c4565b60843567ffffffffffffffff811161019e576106b79036906004016114c4565b916106c06115c2565b600754926106cd846118fd565b600755604051906106dd82611417565b6001600160a01b03868116835292831660208084019182526040808501878152606435606087015242608087015260a0860194909452600088815260099092529020835181549086166001600160a01b03199182161782559151600182018054919096169216919091179093555180519067ffffffffffffffff8211610b845761076a60028501546114e2565b601f8111610c16575b50602090601f8311600114610ba55760a093929160009183610b9a575b50508160011b916000199060031b1c19161760028401555b6060810151600384015560808101516004840155015180519067ffffffffffffffff8211610b84576107dd60058401546114e2565b601f8111610b3d575b50602090601f8311600114610acf576005929160009183610ac4575b50508160011b916000199060031b1c1916179101555b60405161082481611433565b600081526001600160a01b03841615610aab576000838152600260205260409020546001600160a01b031680151590849082610a74575b6001600160a01b0387166000818152600360209081526040808320805460010190558583526002909152812080546001600160a01b031916831790559091907fddf252ad1be2c89b69c2b068fc378daa952ba7f163c4a11628f55a4df523b3ef9080a4610a5b57833b610925575b5091817ff65f8af45d2c7b79a3f8a4ca6a7769347f5c993567035809652d932123642a00610907602095604051918291604083526040830190611391565b606435828901526001600160a01b03909516940390a3604051908152f35b6040516020818061095f630a85bd0160e11b9586835233600484015260006024840152886044840152608060648401526084830190611391565b038160006001600160a01b038a165af160009181610a16575b506109e057843d156109d8573d9061098f82611471565b9161099d604051938461144f565b82523d6000602084013e5b815191826109d157604051633250574960e11b81526001600160a01b0383166004820152602490fd5b6020915001fd5b6060906109a8565b6001600160e01b031916036109f557816108c9565b604051633250574960e11b81526001600160a01b0384166004820152602490fd5b9091506020813d602011610a53575b81610a326020938361144f565b8101031261019e57516001600160e01b03198116810361019e579086610978565b3d9150610a25565b6040516339e3563760e11b815260006004820152602490fd5b600082815260046020526040902080546001600160a01b03191690558060005260036020526040600020600019815401905561085b565b604051633250574960e11b815260006004820152602490fd5b015190508780610802565b90601f198316916005850160005260206000209260005b818110610b2557509160019391856005969410610b0c575b505050811b01910155610818565b015160001960f88460031b161c19169055878080610afe565b92936020600181928786015181550195019301610ae6565b600584016000526020600020601f840160051c810160208510610b7d575b601f830160051c82018110610b715750506107e6565b60008155600101610b5b565b5080610b5b565b634e487b7160e01b600052604160045260246000fd5b015190508880610790565b90601f198316916002860160005260206000209260005b818110610bfe575091600193918560a097969410610be5575b505050811b0160028401556107a8565b015160001960f88460031b161c19169055888080610bd5565b92936020600181928786015181550195019301610bbc565b600285016000526020600020601f840160051c810160208510610c56575b601f830160051c82018110610c4a575050610773565b60008155600101610c34565b5080610c34565b3461019e57608036600319011261019e57610c766113b6565b610c7e6113cc565b906044356064359267ffffffffffffffff841161019e573660238501121561019e57610cb7610cc994369060248160040135910161148d565b92610cc38383836115ee565b336117af565b005b3461019e57604036600319011261019e57610ce46113b6565b6024359081151580920361019e576001600160a01b0316908115610d5757336000526005602052604060002082600052602052604060002060ff1981541660ff83161790556040519081527f17307eab39ab6107e8899845ad3d59bd9653f200f220920489ca2b5937696c3160203392a3005b604051630b61174360e31b815260048101839052602490fd5b3461019e57600036600319011261019e5760405160006001805490610d94826114e2565b80855291818116908115610e285750600114610dcf575b61019a84610dbb8186038261144f565b604051918291602083526020830190611391565b600081815292507fb10e2d527612073b26eecdfd717e6a320cf44b4afac2b0732d9fcbe2b7fa0cf65b828410610e10575050508101602001610dbb82610dab565b80546020858701810191909152909301928101610df8565b60ff191660208087019190915292151560051b85019092019250610dbb9150839050610dab565b3461019e57600036600319011261019e576006546040516001600160a01b039091168152602090f35b3461019e57600036600319011261019e57610e916115c2565b600680546001600160a01b031981169091556000906001600160a01b03167f8be0079c531659141344cd1fd0a4f28419497f9722a3daafe3b4186f6b6457e08280a3005b3461019e57602036600319011261019e576001600160a01b03610ef66113b6565b168015610f155760005260036020526020604060002054604051908152f35b6040516322718ad960e21b815260006004820152602490fd5b3461019e57602036600319011261019e576020610f4c600435611774565b6040516001600160a01b039091168152f35b3461019e5760208060031936011261019e5767ffffffffffffffff60043581811161019e57610f919036906004016114c4565b91610f9a6115c2565b8251918211610b8457610fae6008546114e2565b601f8111611074575b5080601f8311600114610ff357508192600092610fe8575b5050600019600383901b1c191660019190911b17600855005b015190508280610fcf565b90601f1983169360086000527ff3f7a9fe364faab93b216da50a3214154f22a0a2b415b23a84c8169e8b636ee3926000905b86821061105c5750508360019510611043575b505050811b01600855005b015160001960f88460031b161c19169055828080611038565b80600185968294968601518155019501930190611025565b60086000527ff3f7a9fe364faab93b216da50a3214154f22a0a2b415b23a84c8169e8b636ee3601f840160051c8101918385106110ce575b601f0160051c01905b8181106110c25750610fb7565b600081556001016110b5565b90915081906110ac565b3461019e57610cc96110e9366113e2565b90604051926110f784611433565b60008452610cc38383836115ee565b3461019e57610cc9611117366113e2565b916115ee565b3461019e57600036600319011261019e576020600754604051908152f35b3461019e57604036600319011261019e576111546113b6565b60243561116081611774565b3315158061120f575b806111e2575b6111ca576001600160a01b039283169282918491167f8c5be1e5ebec7d5bd14f71427d1e84f3dd0314c0f7b2291e5b200ac8c7c3b925600080a4600090815260046020526040902080546001600160a01b0319169091179055005b60405163a9fbf51f60e01b8152336004820152602490fd5b5060018060a01b038116600052600560205260406000203360005260205260ff604060002054161561116f565b506001600160a01b038116331415611169565b3461019e57602036600319011261019e5760043561123f81611774565b506000526004602052602060018060a01b0360406000205416604051908152f35b3461019e57600036600319011261019e5760405160008054611281816114e2565b80845290600190818116908115610e2857506001146112aa5761019a84610dbb8186038261144f565b600080805292507f290decd9548b62a8d60345a988386fc84ba6bc95484008f6362f93160ef3e5635b8284106112eb575050508101602001610dbb82610dab565b805460208587018101919091529093019281016112d3565b3461019e57602036600319011261019e576004359063ffffffff60e01b821680920361019e576020916380ac58cd60e01b811490811561135d575b811561134c575b5015158152f35b6301ffc9a760e01b14905083611345565b635b5e139f60e01b8114915061133e565b60005b8381106113815750506000910152565b8181015183820152602001611371565b906020916113aa8151809281855285808601910161136e565b601f01601f1916010190565b600435906001600160a01b038216820361019e57565b602435906001600160a01b038216820361019e57565b606090600319011261019e576001600160a01b0390600435828116810361019e5791602435908116810361019e579060443590565b60c0810190811067ffffffffffffffff821117610b8457604052565b6020810190811067ffffffffffffffff821117610b8457604052565b90601f8019910116810190811067ffffffffffffffff821117610b8457604052565b67ffffffffffffffff8111610b8457601f01601f191660200190565b92919261149982611471565b916114a7604051938461144f565b82948184528183011161019e578281602093846000960137010152565b9080601f8301121561019e578160206114df9335910161148d565b90565b90600182811c92168015611512575b60208310146114fc57565b634e487b7160e01b600052602260045260246000fd5b91607f16916114f1565b9060405191826000825492611530846114e2565b90818452600194858116908160001461159f575060011461155c575b505061155a9250038361144f565b565b9093915060005260209081600020936000915b81831061158757505061155a9350820101388061154c565b8554888401850152948501948794509183019161156f565b91505061155a94506020925060ff191682840152151560051b820101388061154c565b6006546001600160a01b031633036115d657565b60405163118cdaa760e01b8152336004820152602490fd5b6001600160a01b039182169290918315610aab576000928284528260209560028752604096848888205416968791331515806116de575b509060027fddf252ad1be2c89b69c2b068fc378daa952ba7f163c4a11628f55a4df523b3ef92846116ab575b858352600381528b8320805460010190558683525289812080546001600160a01b0319168517905580a4169283830361168a5750505050565b6064945051926364283d7b60e01b8452600484015260248301526044820152fd5b600087815260046020526040902080546001600160a01b0319169055848352600381528b83208054600019019055611651565b91939450915080611733575b156116fa57859291879138611625565b878688611717576024915190637e27328960e01b82526004820152fd5b604491519063177e802f60e01b82523360048301526024820152fd5b503387148015611758575b806116ea57508582526004815233858984205416146116ea565b5086825260058152878220338352815260ff888320541661173e565b6000818152600260205260409020546001600160a01b0316908115611797575090565b60249060405190637e27328960e01b82526004820152fd5b90939192833b6117c1575b5050505050565b604051630a85bd0160e11b8082526001600160a01b03938416600483015295831660248201526044810191909152608060648201529492169260209291859061180e906084830190611391565b039483816000978189895af18691816118b9575b50611883575050503d60001461187a573d61183c81611471565b9061184a604051928361144f565b81528093823d92013e5b8251928361187557604051633250574960e11b815260048101849052602490fd5b019050fd5b60609250611854565b919450915063ffffffff60e01b16036118a1575038808080806117ba565b60249060405190633250574960e11b82526004820152fd5b9091508481813d83116118f6575b6118d1818361144f565b810103126118f257516001600160e01b0319811681036118f2579038611822565b8680fd5b503d6118c7565b600019811461190c5760010190565b634e487b7160e01b600052601160045260246000fd5b1561192957565b60405162461bcd60e51b8152602060048201526014602482015273151bdad95b88191bd95cc81b9bdd08195e1a5cdd60621b6044820152606490fd5b806000917a184f03e93ff9f4daa797ed6e38ed64bf6a1f01000000000000000080821015611abf575b506d04ee2d6d415b85acef810000000080831015611ab0575b50662386f26fc1000080831015611aa1575b506305f5e10080831015611a92575b5061271080831015611a83575b506064821015611a73575b600a80921015611a69575b600190816021818601956119fe87611471565b96611a0c604051988961144f565b808852611a1b601f1991611471565b01366020890137860101905b611a33575b5050505090565b600019019083906f181899199a1a9b1b9c1cb0b131b232b360811b8282061a835304918215611a6457919082611a27565b611a2c565b91600101916119eb565b91906064600291049101916119e0565b600491939204910191386119d5565b600891939204910191386119c8565b601091939204910191386119b9565b602091939204910191386119a7565b60409350810491503861198e565b908151811015611ade570160200190565b634e487b7160e01b600052603260045260246000fd5b6040805167ffffffffffffffff926001600160a01b0316919080820184811182821017610b84578252601081526020916f181899199a1a9b1b9c1cb0b131b232b360811b83830152805194606086019086821090821117610b84578152602a855282850190368237845115611ade5760309053835192600193841015611ade576078602186015360005b60148110611b8e57505050505090565b600c810180821161190c5784811015611ade5782901a60046001600160f81b0319600f81611bc085851c831689611acd565b511693858a1b94600290878704821488151715611c4057868201809211611c4057611bf5611bfd9493928e9260001a92611acd565b531687611acd565b5116906003928301809311611c2b575090611c20611c26939260001a9189611acd565b536118fd565b611b7e565b601190634e487b7160e01b6000525260246000fd5b601186634e487b7160e01b6000525260246000fdfea2646970667358221220e5f33cade0dd87d1afd1d2a05c063b942ed60946ca97cf540dae20a44b6801db64736f6c63430008140033","opcodes":"PUSH1 0x80 CALLVALUE PUSH3 0x34D JUMPI PUSH1 0x40 SWAP1 PUSH1 0x1 PUSH1 0x1 PUSH1 0x40 SHL SUB SWAP1 DUP1 DUP4 ADD DUP3 DUP2 GT DUP3 DUP3 LT OR PUSH3 0x337 JUMPI DUP4 MSTORE PUSH1 0xC DUP2 MSTORE PUSH1 0x20 SWAP1 PUSH12 0x27B93134BA102BB4B73732B9 PUSH1 0xA1 SHL DUP3 DUP3 ADD MSTORE DUP4 MLOAD DUP5 DUP2 ADD DUP2 DUP2 LT DUP6 DUP3 GT OR PUSH3 0x337 JUMPI DUP6 MSTORE PUSH1 0x9 DUP2 MSTORE PUSH9 0x27A92124AA16ABA4A7 PUSH1 0xB9 SHL DUP4 DUP3 ADD MSTORE DUP2 MLOAD SWAP4 DUP1 DUP6 GT PUSH3 0x337 JUMPI PUSH1 0x0 SWAP5 DUP1 PUSH3 0x82 DUP8 SLOAD PUSH3 0x352 JUMP JUMPDEST SWAP5 PUSH1 0x1F SWAP6 DUP7 DUP2 GT PUSH3 0x307 JUMPI JUMPDEST POP DUP7 SWAP1 DUP7 DUP4 GT PUSH1 0x1 EQ PUSH3 0x29F JUMPI DUP9 SWAP3 PUSH3 0x293 JUMPI JUMPDEST POP POP DUP2 PUSH1 0x1 SHL SWAP2 PUSH1 0x0 NOT SWAP1 PUSH1 0x3 SHL SHR NOT AND OR DUP6 SSTORE JUMPDEST DUP2 MLOAD SWAP1 DUP2 GT PUSH3 0x27F JUMPI DUP1 PUSH1 0x1 SWAP3 PUSH3 0xD4 DUP5 SLOAD PUSH3 0x352 JUMP JUMPDEST DUP6 DUP2 GT PUSH3 0x244 JUMPI JUMPDEST POP DUP6 SWAP1 DUP6 DUP4 GT PUSH1 0x1 EQ PUSH3 0x1E0 JUMPI DUP8 SWAP3 PUSH3 0x1D4 JUMPI JUMPDEST POP POP PUSH1 0x0 NOT PUSH1 0x3 DUP4 SWAP1 SHL SHR NOT AND SWAP1 DUP3 SHL OR SWAP1 SSTORE JUMPDEST CALLER ISZERO PUSH3 0x1BC JUMPI PUSH1 0x6 DUP1 SLOAD CALLER PUSH1 0x1 PUSH1 0x1 PUSH1 0xA0 SHL SUB NOT DUP3 AND DUP2 OR SWAP1 SWAP3 SSTORE PUSH1 0x1 PUSH1 0x1 PUSH1 0xA0 SHL SUB AND PUSH32 0x8BE0079C531659141344CD1FD0A4F28419497F9722A3DAAFE3B4186F6B6457E0 DUP6 DUP1 LOG3 PUSH3 0x15D PUSH1 0x8 SLOAD PUSH3 0x352 JUMP JUMPDEST SWAP2 DUP2 DUP4 GT PUSH3 0x19A JUMPI JUMPDEST PUSH32 0x68747470733A2F2F6F726269742E6170702F6170692F6E66742F000000000034 PUSH1 0x8 SSTORE DUP5 MLOAD PUSH2 0x1C8B SWAP1 DUP2 PUSH3 0x3A9 DUP3 CODECOPY RETURN JUMPDEST DUP4 PUSH1 0x8 PUSH3 0x1B2 SWAP6 MSTORE KECCAK256 SWAP2 ADD PUSH1 0x5 SHR DUP2 ADD SWAP1 PUSH3 0x38F JUMP JUMPDEST CODESIZE DUP1 DUP1 DUP1 PUSH3 0x167 JUMP JUMPDEST DUP4 MLOAD PUSH4 0x1E4FBDF7 PUSH1 0xE0 SHL DUP2 MSTORE PUSH1 0x4 DUP2 ADD DUP5 SWAP1 MSTORE PUSH1 0x24 SWAP1 REVERT JUMPDEST ADD MLOAD SWAP1 POP CODESIZE DUP1 PUSH3 0xF3 JUMP JUMPDEST DUP5 DUP9 MSTORE DUP7 DUP9 KECCAK256 DUP6 SWAP5 POP SWAP2 SWAP1 PUSH1 0x1F NOT DUP5 AND DUP10 JUMPDEST DUP10 DUP3 DUP3 LT PUSH3 0x22D JUMPI POP POP DUP5 GT PUSH3 0x213 JUMPI JUMPDEST POP POP POP DUP2 SHL ADD SWAP1 SSTORE PUSH3 0x107 JUMP JUMPDEST ADD MLOAD PUSH1 0x0 NOT PUSH1 0xF8 DUP5 PUSH1 0x3 SHL AND SHR NOT AND SWAP1 SSTORE CODESIZE DUP1 DUP1 PUSH3 0x205 JUMP JUMPDEST DUP4 DUP6 ADD MLOAD DUP7 SSTORE DUP9 SWAP8 SWAP1 SWAP6 ADD SWAP5 SWAP4 DUP5 ADD SWAP4 ADD PUSH3 0x1F2 JUMP JUMPDEST PUSH3 0x26E SWAP1 DUP6 DUP10 MSTORE DUP8 DUP10 KECCAK256 DUP8 DUP1 DUP7 ADD PUSH1 0x5 SHR DUP3 ADD SWAP3 DUP11 DUP8 LT PUSH3 0x275 JUMPI JUMPDEST ADD PUSH1 0x5 SHR ADD SWAP1 PUSH3 0x38F JUMP JUMPDEST CODESIZE PUSH3 0xDD JUMP JUMPDEST SWAP3 POP DUP2 SWAP3 PUSH3 0x262 JUMP JUMPDEST PUSH4 0x4E487B71 PUSH1 0xE0 SHL DUP6 MSTORE PUSH1 0x41 PUSH1 0x4 MSTORE PUSH1 0x24 DUP6 REVERT JUMPDEST ADD MLOAD SWAP1 POP CODESIZE DUP1 PUSH3 0xA5 JUMP JUMPDEST DUP9 DUP1 MSTORE DUP8 DUP10 KECCAK256 SWAP3 POP PUSH1 0x1F NOT DUP5 AND DUP10 JUMPDEST DUP10 DUP3 DUP3 LT PUSH3 0x2F0 JUMPI POP POP SWAP1 DUP5 PUSH1 0x1 SWAP6 SWAP5 SWAP4 SWAP3 LT PUSH3 0x2D6 JUMPI JUMPDEST POP POP POP DUP2 SHL ADD DUP6 SSTORE PUSH3 0xBA JUMP JUMPDEST ADD MLOAD PUSH1 0x0 NOT PUSH1 0xF8 DUP5 PUSH1 0x3 SHL AND SHR NOT AND SWAP1 SSTORE CODESIZE DUP1 DUP1 PUSH3 0x2C8 JUMP JUMPDEST PUSH1 0x1 DUP6 SWAP7 DUP3 SWAP4 SWAP7 DUP7 ADD MLOAD DUP2 SSTORE ADD SWAP6 ADD SWAP4 ADD PUSH3 0x2AE JUMP JUMPDEST PUSH3 0x330 SWAP1 DUP10 DUP1 MSTORE DUP9 DUP11 KECCAK256 DUP9 DUP1 DUP7 ADD PUSH1 0x5 SHR DUP3 ADD SWAP3 DUP12 DUP8 LT PUSH3 0x275 JUMPI ADD PUSH1 0x5 SHR ADD SWAP1 PUSH3 0x38F JUMP JUMPDEST CODESIZE PUSH3 0x8F JUMP JUMPDEST PUSH4 0x4E487B71 PUSH1 0xE0 SHL PUSH1 0x0 MSTORE PUSH1 0x41 PUSH1 0x4 MSTORE PUSH1 0x24 PUSH1 0x0 REVERT JUMPDEST PUSH1 0x0 DUP1 REVERT JUMPDEST SWAP1 PUSH1 0x1 DUP3 DUP2 SHR SWAP3 AND DUP1 ISZERO PUSH3 0x384 JUMPI JUMPDEST PUSH1 0x20 DUP4 LT EQ PUSH3 0x36E JUMPI JUMP JUMPDEST PUSH4 0x4E487B71 PUSH1 0xE0 SHL PUSH1 0x0 MSTORE PUSH1 0x22 PUSH1 0x4 MSTORE PUSH1 0x24 PUSH1 0x0 REVERT JUMPDEST SWAP2 PUSH1 0x7F AND SWAP2 PUSH3 0x362 JUMP JUMPDEST DUP2 DUP2 LT PUSH3 0x39B JUMPI POP POP JUMP JUMPDEST PUSH1 0x0 DUP2 SSTORE PUSH1 0x1 ADD PUSH3 0x38F JUMP INVALID PUSH1 0x80 DUP1 PUSH1 0x40 MSTORE PUSH1 0x4 CALLDATASIZE LT ISZERO PUSH2 0x13 JUMPI PUSH1 0x0 DUP1 REVERT JUMPDEST PUSH1 0x0 CALLDATALOAD PUSH1 0xE0 SHR SWAP1 DUP2 PUSH4 0x1FFC9A7 EQ PUSH2 0x1303 JUMPI POP DUP1 PUSH4 0x6FDDE03 EQ PUSH2 0x1260 JUMPI DUP1 PUSH4 0x81812FC EQ PUSH2 0x1222 JUMPI DUP1 PUSH4 0x95EA7B3 EQ PUSH2 0x113B JUMPI DUP1 PUSH4 0x18160DDD EQ PUSH2 0x111D JUMPI DUP1 PUSH4 0x23B872DD EQ PUSH2 0x1106 JUMPI DUP1 PUSH4 0x42842E0E EQ PUSH2 0x10D8 JUMPI DUP1 PUSH4 0x55F804B3 EQ PUSH2 0xF5E JUMPI DUP1 PUSH4 0x6352211E EQ PUSH2 0xF2E JUMPI DUP1 PUSH4 0x70A08231 EQ PUSH2 0xED5 JUMPI DUP1 PUSH4 0x715018A6 EQ PUSH2 0xE78 JUMPI DUP1 PUSH4 0x8DA5CB5B EQ PUSH2 0xE4F JUMPI DUP1 PUSH4 0x95D89B41 EQ PUSH2 0xD70 JUMPI DUP1 PUSH4 0xA22CB465 EQ PUSH2 0xCCB JUMPI DUP1 PUSH4 0xB88D4FDE EQ PUSH2 0xC5D JUMPI DUP1 PUSH4 0xC3B34A40 EQ PUSH2 0x656 JUMPI DUP1 PUSH4 0xC87B56DD EQ PUSH2 0x3A9 JUMPI DUP1 PUSH4 0xD58A0E12 EQ PUSH2 0x287 JUMPI DUP1 PUSH4 0xE985E9C5 EQ PUSH2 0x231 JUMPI DUP1 PUSH4 0xF2FDE38B EQ PUSH2 0x1A3 JUMPI PUSH4 0xF4025AAB EQ PUSH2 0x106 JUMPI PUSH1 0x0 DUP1 REVERT JUMPDEST CALLVALUE PUSH2 0x19E JUMPI PUSH1 0x20 CALLDATASIZE PUSH1 0x3 NOT ADD SLT PUSH2 0x19E JUMPI PUSH1 0x4 CALLDATALOAD PUSH1 0x0 MSTORE PUSH1 0x9 PUSH1 0x20 MSTORE PUSH1 0x40 PUSH1 0x0 KECCAK256 PUSH1 0x1 DUP1 PUSH1 0xA0 SHL SUB PUSH2 0x19A DUP2 DUP4 SLOAD AND SWAP2 PUSH1 0x1 DUP5 ADD SLOAD AND SWAP3 PUSH2 0x149 PUSH1 0x2 DUP3 ADD PUSH2 0x151C JUMP JUMPDEST PUSH1 0x3 DUP3 ADD SLOAD SWAP2 PUSH2 0x182 PUSH2 0x163 PUSH1 0x5 PUSH1 0x4 DUP5 ADD SLOAD SWAP4 ADD PUSH2 0x151C JUMP JUMPDEST SWAP3 PUSH1 0x40 MLOAD SWAP8 DUP9 SWAP8 DUP9 MSTORE PUSH1 0x20 DUP9 ADD MSTORE PUSH1 0xC0 PUSH1 0x40 DUP9 ADD MSTORE PUSH1 0xC0 DUP8 ADD SWAP1 PUSH2 0x1391 JUMP JUMPDEST SWAP3 PUSH1 0x60 DUP7 ADD MSTORE PUSH1 0x80 DUP6 ADD MSTORE DUP4 DUP3 SUB PUSH1 0xA0 DUP6 ADD MSTORE PUSH2 0x1391 JUMP JUMPDEST SUB SWAP1 RETURN JUMPDEST PUSH1 0x0 DUP1 REVERT JUMPDEST CALLVALUE PUSH2 0x19E JUMPI PUSH1 0x20 CALLDATASIZE PUSH1 0x3 NOT ADD SLT PUSH2 0x19E JUMPI PUSH2 0x1BC PUSH2 0x13B6 JUMP JUMPDEST PUSH2 0x1C4 PUSH2 0x15C2 JUMP JUMPDEST PUSH1 0x1 PUSH1 0x1 PUSH1 0xA0 SHL SUB SWAP1 DUP2 AND SWAP1 DUP2 ISZERO PUSH2 0x218 JUMPI PUSH1 0x6 SLOAD DUP3 PUSH12 0xFFFFFFFFFFFFFFFFFFFFFFFF PUSH1 0xA0 SHL DUP3 AND OR PUSH1 0x6 SSTORE AND PUSH32 0x8BE0079C531659141344CD1FD0A4F28419497F9722A3DAAFE3B4186F6B6457E0 PUSH1 0x0 DUP1 LOG3 STOP JUMPDEST PUSH1 0x40 MLOAD PUSH4 0x1E4FBDF7 PUSH1 0xE0 SHL DUP2 MSTORE PUSH1 0x0 PUSH1 0x4 DUP3 ADD MSTORE PUSH1 0x24 SWAP1 REVERT JUMPDEST CALLVALUE PUSH2 0x19E JUMPI PUSH1 0x40 CALLDATASIZE PUSH1 0x3 NOT ADD SLT PUSH2 0x19E JUMPI PUSH2 0x24A PUSH2 0x13B6 JUMP JUMPDEST PUSH2 0x252 PUSH2 0x13CC JUMP JUMPDEST SWAP1 PUSH1 0x1 DUP1 PUSH1 0xA0 SHL SUB DUP1 SWAP2 AND PUSH1 0x0 MSTORE PUSH1 0x5 PUSH1 0x20 MSTORE PUSH1 0x40 PUSH1 0x0 KECCAK256 SWAP2 AND PUSH1 0x0 MSTORE PUSH1 0x20 MSTORE PUSH1 0x20 PUSH1 0xFF PUSH1 0x40 PUSH1 0x0 KECCAK256 SLOAD AND PUSH1 0x40 MLOAD SWAP1 ISZERO ISZERO DUP2 MSTORE RETURN JUMPDEST CALLVALUE PUSH2 0x19E JUMPI PUSH1 0x20 DUP1 PUSH1 0x3 NOT CALLDATASIZE ADD SLT PUSH2 0x19E JUMPI PUSH1 0x4 CALLDATALOAD SWAP1 PUSH1 0x60 PUSH1 0xA0 PUSH1 0x40 MLOAD PUSH2 0x2AD DUP2 PUSH2 0x1417 JUMP JUMPDEST PUSH1 0x0 DUP2 MSTORE PUSH1 0x0 DUP5 DUP3 ADD MSTORE DUP3 PUSH1 0x40 DUP3 ADD MSTORE PUSH1 0x0 DUP4 DUP3 ADD MSTORE PUSH1 0x0 PUSH1 0x80 DUP3 ADD MSTORE ADD MSTORE DUP2 PUSH1 0x0 MSTORE PUSH1 0x2 DUP2 MSTORE PUSH1 0x1 DUP1 PUSH1 0xA0 SHL SUB SWAP2 PUSH2 0x2EE DUP4 PUSH1 0x40 PUSH1 0x0 KECCAK256 SLOAD AND ISZERO ISZERO PUSH2 0x1922 JUMP JUMPDEST PUSH1 0x0 MSTORE PUSH1 0x9 DUP2 MSTORE PUSH2 0x19A PUSH1 0x40 PUSH1 0x0 KECCAK256 PUSH1 0x40 MLOAD SWAP3 PUSH2 0x30A DUP5 PUSH2 0x1417 JUMP JUMPDEST DUP5 DUP3 SLOAD AND DUP5 MSTORE DUP5 PUSH1 0x1 DUP4 ADD SLOAD AND SWAP2 DUP2 DUP6 ADD SWAP3 DUP4 MSTORE PUSH2 0x38A PUSH2 0x32D PUSH1 0x2 DUP4 ADD PUSH2 0x151C JUMP JUMPDEST PUSH1 0x40 DUP8 ADD SWAP1 DUP2 MSTORE DUP8 PUSH1 0x3 DUP5 ADD SLOAD SWAP6 PUSH1 0x60 DUP10 ADD SWAP7 DUP8 MSTORE PUSH2 0x35A PUSH1 0x5 PUSH1 0x4 DUP8 ADD SLOAD SWAP7 PUSH1 0x80 DUP13 ADD SWAP8 DUP9 MSTORE ADD PUSH2 0x151C JUMP JUMPDEST SWAP6 PUSH1 0xA0 DUP11 ADD SWAP7 DUP8 MSTORE PUSH1 0x40 MLOAD SWAP11 DUP12 SWAP11 DUP3 DUP13 MSTORE MLOAD AND SWAP1 DUP11 ADD MSTORE MLOAD AND PUSH1 0x40 DUP9 ADD MSTORE MLOAD PUSH1 0xC0 PUSH1 0x60 DUP9 ADD MSTORE PUSH1 0xE0 DUP8 ADD SWAP1 PUSH2 0x1391 JUMP JUMPDEST SWAP3 MLOAD PUSH1 0x80 DUP7 ADD MSTORE MLOAD PUSH1 0xA0 DUP6 ADD MSTORE MLOAD DUP4 DUP3 SUB PUSH1 0x1F NOT ADD PUSH1 0xC0 DUP6 ADD MSTORE PUSH2 0x1391 JUMP JUMPDEST CALLVALUE PUSH2 0x19E JUMPI PUSH1 0x20 DUP1 PUSH1 0x3 NOT CALLDATASIZE ADD SLT PUSH2 0x19E JUMPI PUSH1 0x4 CALLDATALOAD SWAP1 DUP2 PUSH1 0x0 MSTORE PUSH1 0x2 DUP2 MSTORE PUSH1 0x1 DUP1 PUSH1 0xA0 SHL SUB PUSH2 0x3E0 DUP2 PUSH1 0x40 PUSH1 0x0 KECCAK256 SLOAD AND ISZERO ISZERO PUSH2 0x1922 JUMP JUMPDEST DUP3 PUSH1 0x0 MSTORE PUSH1 0x9 DUP3 MSTORE PUSH1 0x40 PUSH1 0x0 KECCAK256 SWAP3 PUSH1 0x40 MLOAD SWAP1 PUSH2 0x3FB DUP3 PUSH2 0x1417 JUMP JUMPDEST DUP3 DUP6 SLOAD AND DUP3 MSTORE DUP2 PUSH1 0x1 SWAP6 DUP5 DUP8 DUP3 ADD SLOAD AND SWAP5 DUP7 DUP4 ADD SWAP6 DUP7 MSTORE PUSH2 0x487 PUSH2 0x480 PUSH2 0x477 PUSH2 0x427 PUSH1 0x2 DUP7 ADD PUSH2 0x151C JUMP JUMPDEST SWAP4 PUSH1 0x40 DUP8 ADD SWAP5 DUP6 MSTORE PUSH2 0x46F DUP2 PUSH2 0x467 PUSH2 0x45A PUSH1 0x5 PUSH1 0x3 DUP12 ADD SLOAD SWAP11 PUSH1 0x60 DUP14 ADD SWAP12 DUP13 MSTORE PUSH1 0x80 PUSH1 0x4 DUP3 ADD SLOAD SWAP14 ADD SWAP13 DUP14 MSTORE ADD PUSH2 0x151C JUMP JUMPDEST SWAP11 PUSH1 0xA0 DUP14 ADD SWAP12 DUP13 MSTORE PUSH2 0x1965 JUMP JUMPDEST SWAP11 MLOAD AND PUSH2 0x1AF4 JUMP JUMPDEST SWAP10 MLOAD AND PUSH2 0x1AF4 JUMP JUMPDEST SWAP3 MLOAD SWAP4 MLOAD PUSH2 0x1965 JUMP JUMPDEST SWAP4 MLOAD PUSH2 0x1965 JUMP JUMPDEST SWAP4 MLOAD SWAP6 DUP8 PUSH1 0x40 MLOAD SWAP10 DUP11 SWAP8 PUSH1 0x0 SWAP2 PUSH1 0x8 SLOAD SWAP1 PUSH2 0x4A1 DUP3 PUSH2 0x14E2 JUMP JUMPDEST SWAP2 DUP2 DUP2 AND SWAP1 DUP2 ISZERO PUSH2 0x639 JUMPI POP PUSH1 0x1 EQ PUSH2 0x5D8 JUMPI JUMPDEST POP POP SWAP2 DUP2 PUSH2 0x4D5 DUP5 PUSH1 0x36 SWAP12 SWAP11 SWAP9 SWAP7 SWAP5 PUSH2 0x5C4 SWAP14 SWAP11 SWAP9 SWAP7 MLOAD SWAP5 DUP6 SWAP3 ADD PUSH2 0x136E JUMP JUMPDEST ADD PUSH8 0x3F77696E6E65723D PUSH1 0xC0 SHL DUP2 MSTORE PUSH2 0x4F7 DUP3 MLOAD DUP1 SWAP4 DUP14 PUSH1 0x8 DUP6 ADD SWAP2 ADD PUSH2 0x136E JUMP JUMPDEST ADD PUSH10 0x266F70706F6E656E743D PUSH1 0xB0 SHL PUSH1 0x8 DUP3 ADD MSTORE PUSH2 0x51E DUP3 MLOAD DUP1 SWAP4 DUP13 PUSH1 0x12 DUP6 ADD SWAP2 ADD PUSH2 0x136E JUMP JUMPDEST ADD PUSH6 0x2667616D653D PUSH1 0xD0 SHL PUSH1 0x12 DUP3 ADD MSTORE PUSH2 0x541 DUP3 MLOAD DUP1 SWAP4 DUP12 PUSH1 0x18 DUP6 ADD SWAP2 ADD PUSH2 0x136E JUMP JUMPDEST ADD PUSH7 0x2677616765723D PUSH1 0xC8 SHL PUSH1 0x18 DUP3 ADD MSTORE PUSH2 0x565 DUP3 MLOAD DUP1 SWAP4 DUP11 PUSH1 0x1F DUP6 ADD SWAP2 ADD PUSH2 0x136E JUMP JUMPDEST ADD PUSH11 0x2674696D657374616D703D PUSH1 0xA8 SHL PUSH1 0x1F DUP3 ADD MSTORE PUSH2 0x58D DUP3 MLOAD DUP1 SWAP4 DUP10 PUSH1 0x2A DUP6 ADD SWAP2 ADD PUSH2 0x136E JUMP JUMPDEST ADD PUSH12 0x2673637265656E73686F743D PUSH1 0xA0 SHL PUSH1 0x2A DUP3 ADD MSTORE PUSH2 0x5B5 DUP3 MLOAD DUP1 SWAP4 DUP9 DUP8 DUP6 ADD SWAP2 ADD PUSH2 0x136E JUMP JUMPDEST ADD SUB PUSH1 0x16 DUP2 ADD DUP6 MSTORE ADD DUP4 PUSH2 0x144F JUMP JUMPDEST PUSH2 0x19A PUSH1 0x40 MLOAD SWAP3 DUP3 DUP5 SWAP4 DUP5 MSTORE DUP4 ADD SWAP1 PUSH2 0x1391 JUMP JUMPDEST SWAP1 SWAP2 SWAP3 POP PUSH1 0x8 PUSH1 0x0 MSTORE PUSH32 0xF3F7A9FE364FAAB93B216DA50A3214154F22A0A2B415B23A84C8169E8B636EE3 SWAP1 PUSH1 0x0 SWAP2 JUMPDEST DUP4 DUP4 LT PUSH2 0x61F JUMPI POP POP POP DUP9 ADD DUP3 ADD SWAP1 DUP1 PUSH2 0x4D5 PUSH2 0x4B5 JUMP JUMPDEST DUP1 SLOAD SWAP12 DUP4 ADD DUP7 ADD SWAP12 SWAP1 SWAP12 MSTORE DUP14 SWAP11 DUP14 SWAP6 SWAP1 SWAP3 ADD SWAP2 DUP2 ADD PUSH2 0x607 JUMP JUMPDEST PUSH1 0xFF NOT AND DUP7 DUP14 ADD MSTORE POP POP DUP1 ISZERO ISZERO MUL DUP10 ADD DUP4 ADD SWAP2 POP DUP1 PUSH2 0x4D5 PUSH2 0x4B5 JUMP JUMPDEST CALLVALUE PUSH2 0x19E JUMPI PUSH1 0xA0 CALLDATASIZE PUSH1 0x3 NOT ADD SLT PUSH2 0x19E JUMPI PUSH2 0x66F PUSH2 0x13B6 JUMP JUMPDEST PUSH2 0x677 PUSH2 0x13CC JUMP JUMPDEST PUSH1 0x44 CALLDATALOAD PUSH8 0xFFFFFFFFFFFFFFFF DUP2 GT PUSH2 0x19E JUMPI PUSH2 0x697 SWAP1 CALLDATASIZE SWAP1 PUSH1 0x4 ADD PUSH2 0x14C4 JUMP JUMPDEST PUSH1 0x84 CALLDATALOAD PUSH8 0xFFFFFFFFFFFFFFFF DUP2 GT PUSH2 0x19E JUMPI PUSH2 0x6B7 SWAP1 CALLDATASIZE SWAP1 PUSH1 0x4 ADD PUSH2 0x14C4 JUMP JUMPDEST SWAP2 PUSH2 0x6C0 PUSH2 0x15C2 JUMP JUMPDEST PUSH1 0x7 SLOAD SWAP3 PUSH2 0x6CD DUP5 PUSH2 0x18FD JUMP JUMPDEST PUSH1 0x7 SSTORE PUSH1 0x40 MLOAD SWAP1 PUSH2 0x6DD DUP3 PUSH2 0x1417 JUMP JUMPDEST PUSH1 0x1 PUSH1 0x1 PUSH1 0xA0 SHL SUB DUP7 DUP2 AND DUP4 MSTORE SWAP3 DUP4 AND PUSH1 0x20 DUP1 DUP5 ADD SWAP2 DUP3 MSTORE PUSH1 0x40 DUP1 DUP6 ADD DUP8 DUP2 MSTORE PUSH1 0x64 CALLDATALOAD PUSH1 0x60 DUP8 ADD MSTORE TIMESTAMP PUSH1 0x80 DUP8 ADD MSTORE PUSH1 0xA0 DUP7 ADD SWAP5 SWAP1 SWAP5 MSTORE PUSH1 0x0 DUP9 DUP2 MSTORE PUSH1 0x9 SWAP1 SWAP3 MSTORE SWAP1 KECCAK256 DUP4 MLOAD DUP2 SLOAD SWAP1 DUP7 AND PUSH1 0x1 PUSH1 0x1 PUSH1 0xA0 SHL SUB NOT SWAP2 DUP3 AND OR DUP3 SSTORE SWAP2 MLOAD PUSH1 0x1 DUP3 ADD DUP1 SLOAD SWAP2 SWAP1 SWAP7 AND SWAP3 AND SWAP2 SWAP1 SWAP2 OR SWAP1 SWAP4 SSTORE MLOAD DUP1 MLOAD SWAP1 PUSH8 0xFFFFFFFFFFFFFFFF DUP3 GT PUSH2 0xB84 JUMPI PUSH2 0x76A PUSH1 0x2 DUP6 ADD SLOAD PUSH2 0x14E2 JUMP JUMPDEST PUSH1 0x1F DUP2 GT PUSH2 0xC16 JUMPI JUMPDEST POP PUSH1 0x20 SWAP1 PUSH1 0x1F DUP4 GT PUSH1 0x1 EQ PUSH2 0xBA5 JUMPI PUSH1 0xA0 SWAP4 SWAP3 SWAP2 PUSH1 0x0 SWAP2 DUP4 PUSH2 0xB9A JUMPI JUMPDEST POP POP DUP2 PUSH1 0x1 SHL SWAP2 PUSH1 0x0 NOT SWAP1 PUSH1 0x3 SHL SHR NOT AND OR PUSH1 0x2 DUP5 ADD SSTORE JUMPDEST PUSH1 0x60 DUP2 ADD MLOAD PUSH1 0x3 DUP5 ADD SSTORE PUSH1 0x80 DUP2 ADD MLOAD PUSH1 0x4 DUP5 ADD SSTORE ADD MLOAD DUP1 MLOAD SWAP1 PUSH8 0xFFFFFFFFFFFFFFFF DUP3 GT PUSH2 0xB84 JUMPI PUSH2 0x7DD PUSH1 0x5 DUP5 ADD SLOAD PUSH2 0x14E2 JUMP JUMPDEST PUSH1 0x1F DUP2 GT PUSH2 0xB3D JUMPI JUMPDEST POP PUSH1 0x20 SWAP1 PUSH1 0x1F DUP4 GT PUSH1 0x1 EQ PUSH2 0xACF JUMPI PUSH1 0x5 SWAP3 SWAP2 PUSH1 0x0 SWAP2 DUP4 PUSH2 0xAC4 JUMPI JUMPDEST POP POP DUP2 PUSH1 0x1 SHL SWAP2 PUSH1 0x0 NOT SWAP1 PUSH1 0x3 SHL SHR NOT AND OR SWAP2 ADD SSTORE JUMPDEST PUSH1 0x40 MLOAD PUSH2 0x824 DUP2 PUSH2 0x1433 JUMP JUMPDEST PUSH1 0x0 DUP2 MSTORE PUSH1 0x1 PUSH1 0x1 PUSH1 0xA0 SHL SUB DUP5 AND ISZERO PUSH2 0xAAB JUMPI PUSH1 0x0 DUP4 DUP2 MSTORE PUSH1 0x2 PUSH1 0x20 MSTORE PUSH1 0x40 SWAP1 KECCAK256 SLOAD PUSH1 0x1 PUSH1 0x1 PUSH1 0xA0 SHL SUB AND DUP1 ISZERO ISZERO SWAP1 DUP5 SWAP1 DUP3 PUSH2 0xA74 JUMPI JUMPDEST PUSH1 0x1 PUSH1 0x1 PUSH1 0xA0 SHL SUB DUP8 AND PUSH1 0x0 DUP2 DUP2 MSTORE PUSH1 0x3 PUSH1 0x20 SWAP1 DUP2 MSTORE PUSH1 0x40 DUP1 DUP4 KECCAK256 DUP1 SLOAD PUSH1 0x1 ADD SWAP1 SSTORE DUP6 DUP4 MSTORE PUSH1 0x2 SWAP1 SWAP2 MSTORE DUP2 KECCAK256 DUP1 SLOAD PUSH1 0x1 PUSH1 0x1 PUSH1 0xA0 SHL SUB NOT AND DUP4 OR SWAP1 SSTORE SWAP1 SWAP2 SWAP1 PUSH32 0xDDF252AD1BE2C89B69C2B068FC378DAA952BA7F163C4A11628F55A4DF523B3EF SWAP1 DUP1 LOG4 PUSH2 0xA5B JUMPI DUP4 EXTCODESIZE PUSH2 0x925 JUMPI JUMPDEST POP SWAP2 DUP2 PUSH32 0xF65F8AF45D2C7B79A3F8A4CA6A7769347F5C993567035809652D932123642A00 PUSH2 0x907 PUSH1 0x20 SWAP6 PUSH1 0x40 MLOAD SWAP2 DUP3 SWAP2 PUSH1 0x40 DUP4 MSTORE PUSH1 0x40 DUP4 ADD SWAP1 PUSH2 0x1391 JUMP JUMPDEST PUSH1 0x64 CALLDATALOAD DUP3 DUP10 ADD MSTORE PUSH1 0x1 PUSH1 0x1 PUSH1 0xA0 SHL SUB SWAP1 SWAP6 AND SWAP5 SUB SWAP1 LOG3 PUSH1 0x40 MLOAD SWAP1 DUP2 MSTORE RETURN JUMPDEST PUSH1 0x40 MLOAD PUSH1 0x20 DUP2 DUP1 PUSH2 0x95F PUSH4 0xA85BD01 PUSH1 0xE1 SHL SWAP6 DUP7 DUP4 MSTORE CALLER PUSH1 0x4 DUP5 ADD MSTORE PUSH1 0x0 PUSH1 0x24 DUP5 ADD MSTORE DUP9 PUSH1 0x44 DUP5 ADD MSTORE PUSH1 0x80 PUSH1 0x64 DUP5 ADD MSTORE PUSH1 0x84 DUP4 ADD SWAP1 PUSH2 0x1391 JUMP JUMPDEST SUB DUP2 PUSH1 0x0 PUSH1 0x1 PUSH1 0x1 PUSH1 0xA0 SHL SUB DUP11 AND GAS CALL PUSH1 0x0 SWAP2 DUP2 PUSH2 0xA16 JUMPI JUMPDEST POP PUSH2 0x9E0 JUMPI DUP5 RETURNDATASIZE ISZERO PUSH2 0x9D8 JUMPI RETURNDATASIZE SWAP1 PUSH2 0x98F DUP3 PUSH2 0x1471 JUMP JUMPDEST SWAP2 PUSH2 0x99D PUSH1 0x40 MLOAD SWAP4 DUP5 PUSH2 0x144F JUMP JUMPDEST DUP3 MSTORE RETURNDATASIZE PUSH1 0x0 PUSH1 0x20 DUP5 ADD RETURNDATACOPY JUMPDEST DUP2 MLOAD SWAP2 DUP3 PUSH2 0x9D1 JUMPI PUSH1 0x40 MLOAD PUSH4 0x32505749 PUSH1 0xE1 SHL DUP2 MSTORE PUSH1 0x1 PUSH1 0x1 PUSH1 0xA0 SHL SUB DUP4 AND PUSH1 0x4 DUP3 ADD MSTORE PUSH1 0x24 SWAP1 REVERT JUMPDEST PUSH1 0x20 SWAP2 POP ADD REVERT JUMPDEST PUSH1 0x60 SWAP1 PUSH2 0x9A8 JUMP JUMPDEST PUSH1 0x1 PUSH1 0x1 PUSH1 0xE0 SHL SUB NOT AND SUB PUSH2 0x9F5 JUMPI DUP2 PUSH2 0x8C9 JUMP JUMPDEST PUSH1 0x40 MLOAD PUSH4 0x32505749 PUSH1 0xE1 SHL DUP2 MSTORE PUSH1 0x1 PUSH1 0x1 PUSH1 0xA0 SHL SUB DUP5 AND PUSH1 0x4 DUP3 ADD MSTORE PUSH1 0x24 SWAP1 REVERT JUMPDEST SWAP1 SWAP2 POP PUSH1 0x20 DUP2 RETURNDATASIZE PUSH1 0x20 GT PUSH2 0xA53 JUMPI JUMPDEST DUP2 PUSH2 0xA32 PUSH1 0x20 SWAP4 DUP4 PUSH2 0x144F JUMP JUMPDEST DUP2 ADD SUB SLT PUSH2 0x19E JUMPI MLOAD PUSH1 0x1 PUSH1 0x1 PUSH1 0xE0 SHL SUB NOT DUP2 AND DUP2 SUB PUSH2 0x19E JUMPI SWAP1 DUP7 PUSH2 0x978 JUMP JUMPDEST RETURNDATASIZE SWAP2 POP PUSH2 0xA25 JUMP JUMPDEST PUSH1 0x40 MLOAD PUSH4 0x39E35637 PUSH1 0xE1 SHL DUP2 MSTORE PUSH1 0x0 PUSH1 0x4 DUP3 ADD MSTORE PUSH1 0x24 SWAP1 REVERT JUMPDEST PUSH1 0x0 DUP3 DUP2 MSTORE PUSH1 0x4 PUSH1 0x20 MSTORE PUSH1 0x40 SWAP1 KECCAK256 DUP1 SLOAD PUSH1 0x1 PUSH1 0x1 PUSH1 0xA0 SHL SUB NOT AND SWAP1 SSTORE DUP1 PUSH1 0x0 MSTORE PUSH1 0x3 PUSH1 0x20 MSTORE PUSH1 0x40 PUSH1 0x0 KECCAK256 PUSH1 0x0 NOT DUP2 SLOAD ADD SWAP1 SSTORE PUSH2 0x85B JUMP JUMPDEST PUSH1 0x40 MLOAD PUSH4 0x32505749 PUSH1 0xE1 SHL DUP2 MSTORE PUSH1 0x0 PUSH1 0x4 DUP3 ADD MSTORE PUSH1 0x24 SWAP1 REVERT JUMPDEST ADD MLOAD SWAP1 POP DUP8 DUP1 PUSH2 0x802 JUMP JUMPDEST SWAP1 PUSH1 0x1F NOT DUP4 AND SWAP2 PUSH1 0x5 DUP6 ADD PUSH1 0x0 MSTORE PUSH1 0x20 PUSH1 0x0 KECCAK256 SWAP3 PUSH1 0x0 JUMPDEST DUP2 DUP2 LT PUSH2 0xB25 JUMPI POP SWAP2 PUSH1 0x1 SWAP4 SWAP2 DUP6 PUSH1 0x5 SWAP7 SWAP5 LT PUSH2 0xB0C JUMPI JUMPDEST POP POP POP DUP2 SHL ADD SWAP2 ADD SSTORE PUSH2 0x818 JUMP JUMPDEST ADD MLOAD PUSH1 0x0 NOT PUSH1 0xF8 DUP5 PUSH1 0x3 SHL AND SHR NOT AND SWAP1 SSTORE DUP8 DUP1 DUP1 PUSH2 0xAFE JUMP JUMPDEST SWAP3 SWAP4 PUSH1 0x20 PUSH1 0x1 DUP2 SWAP3 DUP8 DUP7 ADD MLOAD DUP2 SSTORE ADD SWAP6 ADD SWAP4 ADD PUSH2 0xAE6 JUMP JUMPDEST PUSH1 0x5 DUP5 ADD PUSH1 0x0 MSTORE PUSH1 0x20 PUSH1 0x0 KECCAK256 PUSH1 0x1F DUP5 ADD PUSH1 0x5 SHR DUP2 ADD PUSH1 0x20 DUP6 LT PUSH2 0xB7D JUMPI JUMPDEST PUSH1 0x1F DUP4 ADD PUSH1 0x5 SHR DUP3 ADD DUP2 LT PUSH2 0xB71 JUMPI POP POP PUSH2 0x7E6 JUMP JUMPDEST PUSH1 0x0 DUP2 SSTORE PUSH1 0x1 ADD PUSH2 0xB5B JUMP JUMPDEST POP DUP1 PUSH2 0xB5B JUMP JUMPDEST PUSH4 0x4E487B71 PUSH1 0xE0 SHL PUSH1 0x0 MSTORE PUSH1 0x41 PUSH1 0x4 MSTORE PUSH1 0x24 PUSH1 0x0 REVERT JUMPDEST ADD MLOAD SWAP1 POP DUP9 DUP1 PUSH2 0x790 JUMP JUMPDEST SWAP1 PUSH1 0x1F NOT DUP4 AND SWAP2 PUSH1 0x2 DUP7 ADD PUSH1 0x0 MSTORE PUSH1 0x20 PUSH1 0x0 KECCAK256 SWAP3 PUSH1 0x0 JUMPDEST DUP2 DUP2 LT PUSH2 0xBFE JUMPI POP SWAP2 PUSH1 0x1 SWAP4 SWAP2 DUP6 PUSH1 0xA0 SWAP8 SWAP7 SWAP5 LT PUSH2 0xBE5 JUMPI JUMPDEST POP POP POP DUP2 SHL ADD PUSH1 0x2 DUP5 ADD SSTORE PUSH2 0x7A8 JUMP JUMPDEST ADD MLOAD PUSH1 0x0 NOT PUSH1 0xF8 DUP5 PUSH1 0x3 SHL AND SHR NOT AND SWAP1 SSTORE DUP9 DUP1 DUP1 PUSH2 0xBD5 JUMP JUMPDEST SWAP3 SWAP4 PUSH1 0x20 PUSH1 0x1 DUP2 SWAP3 DUP8 DUP7 ADD MLOAD DUP2 SSTORE ADD SWAP6 ADD SWAP4 ADD PUSH2 0xBBC JUMP JUMPDEST PUSH1 0x2 DUP6 ADD PUSH1 0x0 MSTORE PUSH1 0x20 PUSH1 0x0 KECCAK256 PUSH1 0x1F DUP5 ADD PUSH1 0x5 SHR DUP2 ADD PUSH1 0x20 DUP6 LT PUSH2 0xC56 JUMPI JUMPDEST PUSH1 0x1F DUP4 ADD PUSH1 0x5 SHR DUP3 ADD DUP2 LT PUSH2 0xC4A JUMPI POP POP PUSH2 0x773 JUMP JUMPDEST PUSH1 0x0 DUP2 SSTORE PUSH1 0x1 ADD PUSH2 0xC34 JUMP JUMPDEST POP DUP1 PUSH2 0xC34 JUMP JUMPDEST CALLVALUE PUSH2 0x19E JUMPI PUSH1 0x80 CALLDATASIZE PUSH1 0x3 NOT ADD SLT PUSH2 0x19E JUMPI PUSH2 0xC76 PUSH2 0x13B6 JUMP JUMPDEST PUSH2 0xC7E PUSH2 0x13CC JUMP JUMPDEST SWAP1 PUSH1 0x44 CALLDATALOAD PUSH1 0x64 CALLDATALOAD SWAP3 PUSH8 0xFFFFFFFFFFFFFFFF DUP5 GT PUSH2 0x19E JUMPI CALLDATASIZE PUSH1 0x23 DUP6 ADD SLT ISZERO PUSH2 0x19E JUMPI PUSH2 0xCB7 PUSH2 0xCC9 SWAP5 CALLDATASIZE SWAP1 PUSH1 0x24 DUP2 PUSH1 0x4 ADD CALLDATALOAD SWAP2 ADD PUSH2 0x148D JUMP JUMPDEST SWAP3 PUSH2 0xCC3 DUP4 DUP4 DUP4 PUSH2 0x15EE JUMP JUMPDEST CALLER PUSH2 0x17AF JUMP JUMPDEST STOP JUMPDEST CALLVALUE PUSH2 0x19E JUMPI PUSH1 0x40 CALLDATASIZE PUSH1 0x3 NOT ADD SLT PUSH2 0x19E JUMPI PUSH2 0xCE4 PUSH2 0x13B6 JUMP JUMPDEST PUSH1 0x24 CALLDATALOAD SWAP1 DUP2 ISZERO ISZERO DUP1 SWAP3 SUB PUSH2 0x19E JUMPI PUSH1 0x1 PUSH1 0x1 PUSH1 0xA0 SHL SUB AND SWAP1 DUP2 ISZERO PUSH2 0xD57 JUMPI CALLER PUSH1 0x0 MSTORE PUSH1 0x5 PUSH1 0x20 MSTORE PUSH1 0x40 PUSH1 0x0 KECCAK256 DUP3 PUSH1 0x0 MSTORE PUSH1 0x20 MSTORE PUSH1 0x40 PUSH1 0x0 KECCAK256 PUSH1 0xFF NOT DUP2 SLOAD AND PUSH1 0xFF DUP4 AND OR SWAP1 SSTORE PUSH1 0x40 MLOAD SWAP1 DUP2 MSTORE PUSH32 0x17307EAB39AB6107E8899845AD3D59BD9653F200F220920489CA2B5937696C31 PUSH1 0x20 CALLER SWAP3 LOG3 STOP JUMPDEST PUSH1 0x40 MLOAD PUSH4 0xB611743 PUSH1 0xE3 SHL DUP2 MSTORE PUSH1 0x4 DUP2 ADD DUP4 SWAP1 MSTORE PUSH1 0x24 SWAP1 REVERT JUMPDEST CALLVALUE PUSH2 0x19E JUMPI PUSH1 0x0 CALLDATASIZE PUSH1 0x3 NOT ADD SLT PUSH2 0x19E JUMPI PUSH1 0x40 MLOAD PUSH1 0x0 PUSH1 0x1 DUP1 SLOAD SWAP1 PUSH2 0xD94 DUP3 PUSH2 0x14E2 JUMP JUMPDEST DUP1 DUP6 MSTORE SWAP2 DUP2 DUP2 AND SWAP1 DUP2 ISZERO PUSH2 0xE28 JUMPI POP PUSH1 0x1 EQ PUSH2 0xDCF JUMPI JUMPDEST PUSH2 0x19A DUP5 PUSH2 0xDBB DUP2 DUP7 SUB DUP3 PUSH2 0x144F JUMP JUMPDEST PUSH1 0x40 MLOAD SWAP2 DUP3 SWAP2 PUSH1 0x20 DUP4 MSTORE PUSH1 0x20 DUP4 ADD SWAP1 PUSH2 0x1391 JUMP JUMPDEST PUSH1 0x0 DUP2 DUP2 MSTORE SWAP3 POP PUSH32 0xB10E2D527612073B26EECDFD717E6A320CF44B4AFAC2B0732D9FCBE2B7FA0CF6 JUMPDEST DUP3 DUP5 LT PUSH2 0xE10 JUMPI POP POP POP DUP2 ADD PUSH1 0x20 ADD PUSH2 0xDBB DUP3 PUSH2 0xDAB JUMP JUMPDEST DUP1 SLOAD PUSH1 0x20 DUP6 DUP8 ADD DUP2 ADD SWAP2 SWAP1 SWAP2 MSTORE SWAP1 SWAP4 ADD SWAP3 DUP2 ADD PUSH2 0xDF8 JUMP JUMPDEST PUSH1 0xFF NOT AND PUSH1 0x20 DUP1 DUP8 ADD SWAP2 SWAP1 SWAP2 MSTORE SWAP3 ISZERO ISZERO PUSH1 0x5 SHL DUP6 ADD SWAP1 SWAP3 ADD SWAP3 POP PUSH2 0xDBB SWAP2 POP DUP4 SWAP1 POP PUSH2 0xDAB JUMP JUMPDEST CALLVALUE PUSH2 0x19E JUMPI PUSH1 0x0 CALLDATASIZE PUSH1 0x3 NOT ADD SLT PUSH2 0x19E JUMPI PUSH1 0x6 SLOAD PUSH1 0x40 MLOAD PUSH1 0x1 PUSH1 0x1 PUSH1 0xA0 SHL SUB SWAP1 SWAP2 AND DUP2 MSTORE PUSH1 0x20 SWAP1 RETURN JUMPDEST CALLVALUE PUSH2 0x19E JUMPI PUSH1 0x0 CALLDATASIZE PUSH1 0x3 NOT ADD SLT PUSH2 0x19E JUMPI PUSH2 0xE91 PUSH2 0x15C2 JUMP JUMPDEST PUSH1 0x6 DUP1 SLOAD PUSH1 0x1 PUSH1 0x1 PUSH1 0xA0 SHL SUB NOT DUP2 AND SWAP1 SWAP2 SSTORE PUSH1 0x0 SWAP1 PUSH1 0x1 PUSH1 0x1 PUSH1 0xA0 SHL SUB AND PUSH32 0x8BE0079C531659141344CD1FD0A4F28419497F9722A3DAAFE3B4186F6B6457E0 DUP3 DUP1 LOG3 STOP JUMPDEST CALLVALUE PUSH2 0x19E JUMPI PUSH1 0x20 CALLDATASIZE PUSH1 0x3 NOT ADD SLT PUSH2 0x19E JUMPI PUSH1 0x1 PUSH1 0x1 PUSH1 0xA0 SHL SUB PUSH2 0xEF6 PUSH2 0x13B6 JUMP JUMPDEST AND DUP1 ISZERO PUSH2 0xF15 JUMPI PUSH1 0x0 MSTORE PUSH1 0x3 PUSH1 0x20 MSTORE PUSH1 0x20 PUSH1 0x40 PUSH1 0x0 KECCAK256 SLOAD PUSH1 0x40 MLOAD SWAP1 DUP2 MSTORE RETURN JUMPDEST PUSH1 0x40 MLOAD PUSH4 0x22718AD9 PUSH1 0xE2 SHL DUP2 MSTORE PUSH1 0x0 PUSH1 0x4 DUP3 ADD MSTORE PUSH1 0x24 SWAP1 REVERT JUMPDEST CALLVALUE PUSH2 0x19E JUMPI PUSH1 0x20 CALLDATASIZE PUSH1 0x3 NOT ADD SLT PUSH2 0x19E JUMPI PUSH1 0x20 PUSH2 0xF4C PUSH1 0x4 CALLDATALOAD PUSH2 0x1774 JUMP JUMPDEST PUSH1 0x40 MLOAD PUSH1 0x1 PUSH1 0x1 PUSH1 0xA0 SHL SUB SWAP1 SWAP2 AND DUP2 MSTORE RETURN JUMPDEST CALLVALUE PUSH2 0x19E JUMPI PUSH1 0x20 DUP1 PUSH1 0x3 NOT CALLDATASIZE ADD SLT PUSH2 0x19E JUMPI PUSH8 0xFFFFFFFFFFFFFFFF PUSH1 0x4 CALLDATALOAD DUP2 DUP2 GT PUSH2 0x19E JUMPI PUSH2 0xF91 SWAP1 CALLDATASIZE SWAP1 PUSH1 0x4 ADD PUSH2 0x14C4 JUMP JUMPDEST SWAP2 PUSH2 0xF9A PUSH2 0x15C2 JUMP JUMPDEST DUP3 MLOAD SWAP2 DUP3 GT PUSH2 0xB84 JUMPI PUSH2 0xFAE PUSH1 0x8 SLOAD PUSH2 0x14E2 JUMP JUMPDEST PUSH1 0x1F DUP2 GT PUSH2 0x1074 JUMPI JUMPDEST POP DUP1 PUSH1 0x1F DUP4 GT PUSH1 0x1 EQ PUSH2 0xFF3 JUMPI POP DUP2 SWAP3 PUSH1 0x0 SWAP3 PUSH2 0xFE8 JUMPI JUMPDEST POP POP PUSH1 0x0 NOT PUSH1 0x3 DUP4 SWAP1 SHL SHR NOT AND PUSH1 0x1 SWAP2 SWAP1 SWAP2 SHL OR PUSH1 0x8 SSTORE STOP JUMPDEST ADD MLOAD SWAP1 POP DUP3 DUP1 PUSH2 0xFCF JUMP JUMPDEST SWAP1 PUSH1 0x1F NOT DUP4 AND SWAP4 PUSH1 0x8 PUSH1 0x0 MSTORE PUSH32 0xF3F7A9FE364FAAB93B216DA50A3214154F22A0A2B415B23A84C8169E8B636EE3 SWAP3 PUSH1 0x0 SWAP1 JUMPDEST DUP7 DUP3 LT PUSH2 0x105C JUMPI POP POP DUP4 PUSH1 0x1 SWAP6 LT PUSH2 0x1043 JUMPI JUMPDEST POP POP POP DUP2 SHL ADD PUSH1 0x8 SSTORE STOP JUMPDEST ADD MLOAD PUSH1 0x0 NOT PUSH1 0xF8 DUP5 PUSH1 0x3 SHL AND SHR NOT AND SWAP1 SSTORE DUP3 DUP1 DUP1 PUSH2 0x1038 JUMP JUMPDEST DUP1 PUSH1 0x1 DUP6 SWAP7 DUP3 SWAP5 SWAP7 DUP7 ADD MLOAD DUP2 SSTORE ADD SWAP6 ADD SWAP4 ADD SWAP1 PUSH2 0x1025 JUMP JUMPDEST PUSH1 0x8 PUSH1 0x0 MSTORE PUSH32 0xF3F7A9FE364FAAB93B216DA50A3214154F22A0A2B415B23A84C8169E8B636EE3 PUSH1 0x1F DUP5 ADD PUSH1 0x5 SHR DUP2 ADD SWAP2 DUP4 DUP6 LT PUSH2 0x10CE JUMPI JUMPDEST PUSH1 0x1F ADD PUSH1 0x5 SHR ADD SWAP1 JUMPDEST DUP2 DUP2 LT PUSH2 0x10C2 JUMPI POP PUSH2 0xFB7 JUMP JUMPDEST PUSH1 0x0 DUP2 SSTORE PUSH1 0x1 ADD PUSH2 0x10B5 JUMP JUMPDEST SWAP1 SWAP2 POP DUP2 SWAP1 PUSH2 0x10AC JUMP JUMPDEST CALLVALUE PUSH2 0x19E JUMPI PUSH2 0xCC9 PUSH2 0x10E9 CALLDATASIZE PUSH2 0x13E2 JUMP JUMPDEST SWAP1 PUSH1 0x40 MLOAD SWAP3 PUSH2 0x10F7 DUP5 PUSH2 0x1433 JUMP JUMPDEST PUSH1 0x0 DUP5 MSTORE PUSH2 0xCC3 DUP4 DUP4 DUP4 PUSH2 0x15EE JUMP JUMPDEST CALLVALUE PUSH2 0x19E JUMPI PUSH2 0xCC9 PUSH2 0x1117 CALLDATASIZE PUSH2 0x13E2 JUMP JUMPDEST SWAP2 PUSH2 0x15EE JUMP JUMPDEST CALLVALUE PUSH2 0x19E JUMPI PUSH1 0x0 CALLDATASIZE PUSH1 0x3 NOT ADD SLT PUSH2 0x19E JUMPI PUSH1 0x20 PUSH1 0x7 SLOAD PUSH1 0x40 MLOAD SWAP1 DUP2 MSTORE RETURN JUMPDEST CALLVALUE PUSH2 0x19E JUMPI PUSH1 0x40 CALLDATASIZE PUSH1 0x3 NOT ADD SLT PUSH2 0x19E JUMPI PUSH2 0x1154 PUSH2 0x13B6 JUMP JUMPDEST PUSH1 0x24 CALLDATALOAD PUSH2 0x1160 DUP2 PUSH2 0x1774 JUMP JUMPDEST CALLER ISZERO ISZERO DUP1 PUSH2 0x120F JUMPI JUMPDEST DUP1 PUSH2 0x11E2 JUMPI JUMPDEST PUSH2 0x11CA JUMPI PUSH1 0x1 PUSH1 0x1 PUSH1 0xA0 SHL SUB SWAP3 DUP4 AND SWAP3 DUP3 SWAP2 DUP5 SWAP2 AND PUSH32 0x8C5BE1E5EBEC7D5BD14F71427D1E84F3DD0314C0F7B2291E5B200AC8C7C3B925 PUSH1 0x0 DUP1 LOG4 PUSH1 0x0 SWAP1 DUP2 MSTORE PUSH1 0x4 PUSH1 0x20 MSTORE PUSH1 0x40 SWAP1 KECCAK256 DUP1 SLOAD PUSH1 0x1 PUSH1 0x1 PUSH1 0xA0 SHL SUB NOT AND SWAP1 SWAP2 OR SWAP1 SSTORE STOP JUMPDEST PUSH1 0x40 MLOAD PUSH4 0xA9FBF51F PUSH1 0xE0 SHL DUP2 MSTORE CALLER PUSH1 0x4 DUP3 ADD MSTORE PUSH1 0x24 SWAP1 REVERT JUMPDEST POP PUSH1 0x1 DUP1 PUSH1 0xA0 SHL SUB DUP2 AND PUSH1 0x0 MSTORE PUSH1 0x5 PUSH1 0x20 MSTORE PUSH1 0x40 PUSH1 0x0 KECCAK256 CALLER PUSH1 0x0 MSTORE PUSH1 0x20 MSTORE PUSH1 0xFF PUSH1 0x40 PUSH1 0x0 KECCAK256 SLOAD AND ISZERO PUSH2 0x116F JUMP JUMPDEST POP PUSH1 0x1 PUSH1 0x1 PUSH1 0xA0 SHL SUB DUP2 AND CALLER EQ ISZERO PUSH2 0x1169 JUMP JUMPDEST CALLVALUE PUSH2 0x19E JUMPI PUSH1 0x20 CALLDATASIZE PUSH1 0x3 NOT ADD SLT PUSH2 0x19E JUMPI PUSH1 0x4 CALLDATALOAD PUSH2 0x123F DUP2 PUSH2 0x1774 JUMP JUMPDEST POP PUSH1 0x0 MSTORE PUSH1 0x4 PUSH1 0x20 MSTORE PUSH1 0x20 PUSH1 0x1 DUP1 PUSH1 0xA0 SHL SUB PUSH1 0x40 PUSH1 0x0 KECCAK256 SLOAD AND PUSH1 0x40 MLOAD SWAP1 DUP2 MSTORE RETURN JUMPDEST CALLVALUE PUSH2 0x19E JUMPI PUSH1 0x0 CALLDATASIZE PUSH1 0x3 NOT ADD SLT PUSH2 0x19E JUMPI PUSH1 0x40 MLOAD PUSH1 0x0 DUP1 SLOAD PUSH2 0x1281 DUP2 PUSH2 0x14E2 JUMP JUMPDEST DUP1 DUP5 MSTORE SWAP1 PUSH1 0x1 SWAP1 DUP2 DUP2 AND SWAP1 DUP2 ISZERO PUSH2 0xE28 JUMPI POP PUSH1 0x1 EQ PUSH2 0x12AA JUMPI PUSH2 0x19A DUP5 PUSH2 0xDBB DUP2 DUP7 SUB DUP3 PUSH2 0x144F JUMP JUMPDEST PUSH1 0x0 DUP1 DUP1 MSTORE SWAP3 POP PUSH32 0x290DECD9548B62A8D60345A988386FC84BA6BC95484008F6362F93160EF3E563 JUMPDEST DUP3 DUP5 LT PUSH2 0x12EB JUMPI POP POP POP DUP2 ADD PUSH1 0x20 ADD PUSH2 0xDBB DUP3 PUSH2 0xDAB JUMP JUMPDEST DUP1 SLOAD PUSH1 0x20 DUP6 DUP8 ADD DUP2 ADD SWAP2 SWAP1 SWAP2 MSTORE SWAP1 SWAP4 ADD SWAP3 DUP2 ADD PUSH2 0x12D3 JUMP JUMPDEST CALLVALUE PUSH2 0x19E JUMPI PUSH1 0x20 CALLDATASIZE PUSH1 0x3 NOT ADD SLT PUSH2 0x19E JUMPI PUSH1 0x4 CALLDATALOAD SWAP1 PUSH4 0xFFFFFFFF PUSH1 0xE0 SHL DUP3 AND DUP1 SWAP3 SUB PUSH2 0x19E JUMPI PUSH1 0x20 SWAP2 PUSH4 0x80AC58CD PUSH1 0xE0 SHL DUP2 EQ SWAP1 DUP2 ISZERO PUSH2 0x135D JUMPI JUMPDEST DUP2 ISZERO PUSH2 0x134C JUMPI JUMPDEST POP ISZERO ISZERO DUP2 MSTORE RETURN JUMPDEST PUSH4 0x1FFC9A7 PUSH1 0xE0 SHL EQ SWAP1 POP DUP4 PUSH2 0x1345 JUMP JUMPDEST PUSH4 0x5B5E139F PUSH1 0xE0 SHL DUP2 EQ SWAP2 POP PUSH2 0x133E JUMP JUMPDEST PUSH1 0x0 JUMPDEST DUP4 DUP2 LT PUSH2 0x1381 JUMPI POP POP PUSH1 0x0 SWAP2 ADD MSTORE JUMP JUMPDEST DUP2 DUP2 ADD MLOAD DUP4 DUP3 ADD MSTORE PUSH1 0x20 ADD PUSH2 0x1371 JUMP JUMPDEST SWAP1 PUSH1 0x20 SWAP2 PUSH2 0x13AA DUP2 MLOAD DUP1 SWAP3 DUP2 DUP6 MSTORE DUP6 DUP1 DUP7 ADD SWAP2 ADD PUSH2 0x136E JUMP JUMPDEST PUSH1 0x1F ADD PUSH1 0x1F NOT AND ADD ADD SWAP1 JUMP JUMPDEST PUSH1 0x4 CALLDATALOAD SWAP1 PUSH1 0x1 PUSH1 0x1 PUSH1 0xA0 SHL SUB DUP3 AND DUP3 SUB PUSH2 0x19E JUMPI JUMP JUMPDEST PUSH1 0x24 CALLDATALOAD SWAP1 PUSH1 0x1 PUSH1 0x1 PUSH1 0xA0 SHL SUB DUP3 AND DUP3 SUB PUSH2 0x19E JUMPI JUMP JUMPDEST PUSH1 0x60 SWAP1 PUSH1 0x3 NOT ADD SLT PUSH2 0x19E JUMPI PUSH1 0x1 PUSH1 0x1 PUSH1 0xA0 SHL SUB SWAP1 PUSH1 0x4 CALLDATALOAD DUP3 DUP2 AND DUP2 SUB PUSH2 0x19E JUMPI SWAP2 PUSH1 0x24 CALLDATALOAD SWAP1 DUP2 AND DUP2 SUB PUSH2 0x19E JUMPI SWAP1 PUSH1 0x44 CALLDATALOAD SWAP1 JUMP JUMPDEST PUSH1 0xC0 DUP2 ADD SWAP1 DUP2 LT PUSH8 0xFFFFFFFFFFFFFFFF DUP3 GT OR PUSH2 0xB84 JUMPI PUSH1 0x40 MSTORE JUMP JUMPDEST PUSH1 0x20 DUP2 ADD SWAP1 DUP2 LT PUSH8 0xFFFFFFFFFFFFFFFF DUP3 GT OR PUSH2 0xB84 JUMPI PUSH1 0x40 MSTORE JUMP JUMPDEST SWAP1 PUSH1 0x1F DUP1 NOT SWAP2 ADD AND DUP2 ADD SWAP1 DUP2 LT PUSH8 0xFFFFFFFFFFFFFFFF DUP3 GT OR PUSH2 0xB84 JUMPI PUSH1 0x40 MSTORE JUMP JUMPDEST PUSH8 0xFFFFFFFFFFFFFFFF DUP2 GT PUSH2 0xB84 JUMPI PUSH1 0x1F ADD PUSH1 0x1F NOT AND PUSH1 0x20 ADD SWAP1 JUMP JUMPDEST SWAP3 SWAP2 SWAP3 PUSH2 0x1499 DUP3 PUSH2 0x1471 JUMP JUMPDEST SWAP2 PUSH2 0x14A7 PUSH1 0x40 MLOAD SWAP4 DUP5 PUSH2 0x144F JUMP JUMPDEST DUP3 SWAP5 DUP2 DUP5 MSTORE DUP2 DUP4 ADD GT PUSH2 0x19E JUMPI DUP3 DUP2 PUSH1 0x20 SWAP4 DUP5 PUSH1 0x0 SWAP7 ADD CALLDATACOPY ADD ADD MSTORE JUMP JUMPDEST SWAP1 DUP1 PUSH1 0x1F DUP4 ADD SLT ISZERO PUSH2 0x19E JUMPI DUP2 PUSH1 0x20 PUSH2 0x14DF SWAP4 CALLDATALOAD SWAP2 ADD PUSH2 0x148D JUMP JUMPDEST SWAP1 JUMP JUMPDEST SWAP1 PUSH1 0x1 DUP3 DUP2 SHR SWAP3 AND DUP1 ISZERO PUSH2 0x1512 JUMPI JUMPDEST PUSH1 0x20 DUP4 LT EQ PUSH2 0x14FC JUMPI JUMP JUMPDEST PUSH4 0x4E487B71 PUSH1 0xE0 SHL PUSH1 0x0 MSTORE PUSH1 0x22 PUSH1 0x4 MSTORE PUSH1 0x24 PUSH1 0x0 REVERT JUMPDEST SWAP2 PUSH1 0x7F AND SWAP2 PUSH2 0x14F1 JUMP JUMPDEST SWAP1 PUSH1 0x40 MLOAD SWAP2 DUP3 PUSH1 0x0 DUP3 SLOAD SWAP3 PUSH2 0x1530 DUP5 PUSH2 0x14E2 JUMP JUMPDEST SWAP1 DUP2 DUP5 MSTORE PUSH1 0x1 SWAP5 DUP6 DUP2 AND SWAP1 DUP2 PUSH1 0x0 EQ PUSH2 0x159F JUMPI POP PUSH1 0x1 EQ PUSH2 0x155C JUMPI JUMPDEST POP POP PUSH2 0x155A SWAP3 POP SUB DUP4 PUSH2 0x144F JUMP JUMPDEST JUMP JUMPDEST SWAP1 SWAP4 SWAP2 POP PUSH1 0x0 MSTORE PUSH1 0x20 SWAP1 DUP2 PUSH1 0x0 KECCAK256 SWAP4 PUSH1 0x0 SWAP2 JUMPDEST DUP2 DUP4 LT PUSH2 0x1587 JUMPI POP POP PUSH2 0x155A SWAP4 POP DUP3 ADD ADD CODESIZE DUP1 PUSH2 0x154C JUMP JUMPDEST DUP6 SLOAD DUP9 DUP5 ADD DUP6 ADD MSTORE SWAP5 DUP6 ADD SWAP5 DUP8 SWAP5 POP SWAP2 DUP4 ADD SWAP2 PUSH2 0x156F JUMP JUMPDEST SWAP2 POP POP PUSH2 0x155A SWAP5 POP PUSH1 0x20 SWAP3 POP PUSH1 0xFF NOT AND DUP3 DUP5 ADD MSTORE ISZERO ISZERO PUSH1 0x5 SHL DUP3 ADD ADD CODESIZE DUP1 PUSH2 0x154C JUMP JUMPDEST PUSH1 0x6 SLOAD PUSH1 0x1 PUSH1 0x1 PUSH1 0xA0 SHL SUB AND CALLER SUB PUSH2 0x15D6 JUMPI JUMP JUMPDEST PUSH1 0x40 MLOAD PUSH4 0x118CDAA7 PUSH1 0xE0 SHL DUP2 MSTORE CALLER PUSH1 0x4 DUP3 ADD MSTORE PUSH1 0x24 SWAP1 REVERT JUMPDEST PUSH1 0x1 PUSH1 0x1 PUSH1 0xA0 SHL SUB SWAP2 DUP3 AND SWAP3 SWAP1 SWAP2 DUP4 ISZERO PUSH2 0xAAB JUMPI PUSH1 0x0 SWAP3 DUP3 DUP5 MSTORE DUP3 PUSH1 0x20 SWAP6 PUSH1 0x2 DUP8 MSTORE PUSH1 0x40 SWAP7 DUP5 DUP9 DUP9 KECCAK256 SLOAD AND SWAP7 DUP8 SWAP2 CALLER ISZERO ISZERO DUP1 PUSH2 0x16DE JUMPI JUMPDEST POP SWAP1 PUSH1 0x2 PUSH32 0xDDF252AD1BE2C89B69C2B068FC378DAA952BA7F163C4A11628F55A4DF523B3EF SWAP3 DUP5 PUSH2 0x16AB JUMPI JUMPDEST DUP6 DUP4 MSTORE PUSH1 0x3 DUP2 MSTORE DUP12 DUP4 KECCAK256 DUP1 SLOAD PUSH1 0x1 ADD SWAP1 SSTORE DUP7 DUP4 MSTORE MSTORE DUP10 DUP2 KECCAK256 DUP1 SLOAD PUSH1 0x1 PUSH1 0x1 PUSH1 0xA0 SHL SUB NOT AND DUP6 OR SWAP1 SSTORE DUP1 LOG4 AND SWAP3 DUP4 DUP4 SUB PUSH2 0x168A JUMPI POP POP POP POP JUMP JUMPDEST PUSH1 0x64 SWAP5 POP MLOAD SWAP3 PUSH4 0x64283D7B PUSH1 0xE0 SHL DUP5 MSTORE PUSH1 0x4 DUP5 ADD MSTORE PUSH1 0x24 DUP4 ADD MSTORE PUSH1 0x44 DUP3 ADD MSTORE REVERT JUMPDEST PUSH1 0x0 DUP8 DUP2 MSTORE PUSH1 0x4 PUSH1 0x20 MSTORE PUSH1 0x40 SWAP1 KECCAK256 DUP1 SLOAD PUSH1 0x1 PUSH1 0x1 PUSH1 0xA0 SHL SUB NOT AND SWAP1 SSTORE DUP5 DUP4 MSTORE PUSH1 0x3 DUP2 MSTORE DUP12 DUP4 KECCAK256 DUP1 SLOAD PUSH1 0x0 NOT ADD SWAP1 SSTORE PUSH2 0x1651 JUMP JUMPDEST SWAP2 SWAP4 SWAP5 POP SWAP2 POP DUP1 PUSH2 0x1733 JUMPI JUMPDEST ISZERO PUSH2 0x16FA JUMPI DUP6 SWAP3 SWAP2 DUP8 SWAP2 CODESIZE PUSH2 0x1625 JUMP JUMPDEST DUP8 DUP7 DUP9 PUSH2 0x1717 JUMPI PUSH1 0x24 SWAP2 MLOAD SWAP1 PUSH4 0x7E273289 PUSH1 0xE0 SHL DUP3 MSTORE PUSH1 0x4 DUP3 ADD MSTORE REVERT JUMPDEST PUSH1 0x44 SWAP2 MLOAD SWAP1 PUSH4 0x177E802F PUSH1 0xE0 SHL DUP3 MSTORE CALLER PUSH1 0x4 DUP4 ADD MSTORE PUSH1 0x24 DUP3 ADD MSTORE REVERT JUMPDEST POP CALLER DUP8 EQ DUP1 ISZERO PUSH2 0x1758 JUMPI JUMPDEST DUP1 PUSH2 0x16EA JUMPI POP DUP6 DUP3 MSTORE PUSH1 0x4 DUP2 MSTORE CALLER DUP6 DUP10 DUP5 KECCAK256 SLOAD AND EQ PUSH2 0x16EA JUMP JUMPDEST POP DUP7 DUP3 MSTORE PUSH1 0x5 DUP2 MSTORE DUP8 DUP3 KECCAK256 CALLER DUP4 MSTORE DUP2 MSTORE PUSH1 0xFF DUP9 DUP4 KECCAK256 SLOAD AND PUSH2 0x173E JUMP JUMPDEST PUSH1 0x0 DUP2 DUP2 MSTORE PUSH1 0x2 PUSH1 0x20 MSTORE PUSH1 0x40 SWAP1 KECCAK256 SLOAD PUSH1 0x1 PUSH1 0x1 PUSH1 0xA0 SHL SUB AND SWAP1 DUP2 ISZERO PUSH2 0x1797 JUMPI POP SWAP1 JUMP JUMPDEST PUSH1 0x24 SWAP1 PUSH1 0x40 MLOAD SWAP1 PUSH4 0x7E273289 PUSH1 0xE0 SHL DUP3 MSTORE PUSH1 0x4 DUP3 ADD MSTORE REVERT JUMPDEST SWAP1 SWAP4 SWAP2 SWAP3 DUP4 EXTCODESIZE PUSH2 0x17C1 JUMPI JUMPDEST POP POP POP POP POP JUMP JUMPDEST PUSH1 0x40 MLOAD PUSH4 0xA85BD01 PUSH1 0xE1 SHL DUP1 DUP3 MSTORE PUSH1 0x1 PUSH1 0x1 PUSH1 0xA0 SHL SUB SWAP4 DUP5 AND PUSH1 0x4 DUP4 ADD MSTORE SWAP6 DUP4 AND PUSH1 0x24 DUP3 ADD MSTORE PUSH1 0x44 DUP2 ADD SWAP2 SWAP1 SWAP2 MSTORE PUSH1 0x80 PUSH1 0x64 DUP3 ADD MSTORE SWAP5 SWAP3 AND SWAP3 PUSH1 0x20 SWAP3 SWAP2 DUP6 SWAP1 PUSH2 0x180E SWAP1 PUSH1 0x84 DUP4 ADD SWAP1 PUSH2 0x1391 JUMP JUMPDEST SUB SWAP5 DUP4 DUP2 PUSH1 0x0 SWAP8 DUP2 DUP10 DUP10 GAS CALL DUP7 SWAP2 DUP2 PUSH2 0x18B9 JUMPI JUMPDEST POP PUSH2 0x1883 JUMPI POP POP POP RETURNDATASIZE PUSH1 0x0 EQ PUSH2 0x187A JUMPI RETURNDATASIZE PUSH2 0x183C DUP2 PUSH2 0x1471 JUMP JUMPDEST SWAP1 PUSH2 0x184A PUSH1 0x40 MLOAD SWAP3 DUP4 PUSH2 0x144F JUMP JUMPDEST DUP2 MSTORE DUP1 SWAP4 DUP3 RETURNDATASIZE SWAP3 ADD RETURNDATACOPY JUMPDEST DUP3 MLOAD SWAP3 DUP4 PUSH2 0x1875 JUMPI PUSH1 0x40 MLOAD PUSH4 0x32505749 PUSH1 0xE1 SHL DUP2 MSTORE PUSH1 0x4 DUP2 ADD DUP5 SWAP1 MSTORE PUSH1 0x24 SWAP1 REVERT JUMPDEST ADD SWAP1 POP REVERT JUMPDEST PUSH1 0x60 SWAP3 POP PUSH2 0x1854 JUMP JUMPDEST SWAP2 SWAP5 POP SWAP2 POP PUSH4 0xFFFFFFFF PUSH1 0xE0 SHL AND SUB PUSH2 0x18A1 JUMPI POP CODESIZE DUP1 DUP1 DUP1 DUP1 PUSH2 0x17BA JUMP JUMPDEST PUSH1 0x24 SWAP1 PUSH1 0x40 MLOAD SWAP1 PUSH4 0x32505749 PUSH1 0xE1 SHL DUP3 MSTORE PUSH1 0x4 DUP3 ADD MSTORE REVERT JUMPDEST SWAP1 SWAP2 POP DUP5 DUP2 DUP2 RETURNDATASIZE DUP4 GT PUSH2 0x18F6 JUMPI JUMPDEST PUSH2 0x18D1 DUP2 DUP4 PUSH2 0x144F JUMP JUMPDEST DUP2 ADD SUB SLT PUSH2 0x18F2 JUMPI MLOAD PUSH1 0x1 PUSH1 0x1 PUSH1 0xE0 SHL SUB NOT DUP2 AND DUP2 SUB PUSH2 0x18F2 JUMPI SWAP1 CODESIZE PUSH2 0x1822 JUMP JUMPDEST DUP7 DUP1 REVERT JUMPDEST POP RETURNDATASIZE PUSH2 0x18C7 JUMP JUMPDEST PUSH1 0x0 NOT DUP2 EQ PUSH2 0x190C JUMPI PUSH1 0x1 ADD SWAP1 JUMP JUMPDEST PUSH4 0x4E487B71 PUSH1 0xE0 SHL PUSH1 0x0 MSTORE PUSH1 0x11 PUSH1 0x4 MSTORE PUSH1 0x24 PUSH1 0x0 REVERT JUMPDEST ISZERO PUSH2 0x1929 JUMPI JUMP JUMPDEST PUSH1 0x40 MLOAD PUSH3 0x461BCD PUSH1 0xE5 SHL DUP2 MSTORE PUSH1 0x20 PUSH1 0x4 DUP3 ADD MSTORE PUSH1 0x14 PUSH1 0x24 DUP3 ADD MSTORE PUSH20 0x151BDAD95B88191BD95CC81B9BDD08195E1A5CDD PUSH1 0x62 SHL PUSH1 0x44 DUP3 ADD MSTORE PUSH1 0x64 SWAP1 REVERT JUMPDEST DUP1 PUSH1 0x0 SWAP2 PUSH27 0x184F03E93FF9F4DAA797ED6E38ED64BF6A1F010000000000000000 DUP1 DUP3 LT ISZERO PUSH2 0x1ABF JUMPI JUMPDEST POP PUSH14 0x4EE2D6D415B85ACEF8100000000 DUP1 DUP4 LT ISZERO PUSH2 0x1AB0 JUMPI JUMPDEST POP PUSH7 0x2386F26FC10000 DUP1 DUP4 LT ISZERO PUSH2 0x1AA1 JUMPI JUMPDEST POP PUSH4 0x5F5E100 DUP1 DUP4 LT ISZERO PUSH2 0x1A92 JUMPI JUMPDEST POP PUSH2 0x2710 DUP1 DUP4 LT ISZERO PUSH2 0x1A83 JUMPI JUMPDEST POP PUSH1 0x64 DUP3 LT ISZERO PUSH2 0x1A73 JUMPI JUMPDEST PUSH1 0xA DUP1 SWAP3 LT ISZERO PUSH2 0x1A69 JUMPI JUMPDEST PUSH1 0x1 SWAP1 DUP2 PUSH1 0x21 DUP2 DUP7 ADD SWAP6 PUSH2 0x19FE DUP8 PUSH2 0x1471 JUMP JUMPDEST SWAP7 PUSH2 0x1A0C PUSH1 0x40 MLOAD SWAP9 DUP10 PUSH2 0x144F JUMP JUMPDEST DUP1 DUP9 MSTORE PUSH2 0x1A1B PUSH1 0x1F NOT SWAP2 PUSH2 0x1471 JUMP JUMPDEST ADD CALLDATASIZE PUSH1 0x20 DUP10 ADD CALLDATACOPY DUP7 ADD ADD SWAP1 JUMPDEST PUSH2 0x1A33 JUMPI JUMPDEST POP POP POP POP SWAP1 JUMP JUMPDEST PUSH1 0x0 NOT ADD SWAP1 DUP4 SWAP1 PUSH16 0x181899199A1A9B1B9C1CB0B131B232B3 PUSH1 0x81 SHL DUP3 DUP3 MOD BYTE DUP4 MSTORE8 DIV SWAP2 DUP3 ISZERO PUSH2 0x1A64 JUMPI SWAP2 SWAP1 DUP3 PUSH2 0x1A27 JUMP JUMPDEST PUSH2 0x1A2C JUMP JUMPDEST SWAP2 PUSH1 0x1 ADD SWAP2 PUSH2 0x19EB JUMP JUMPDEST SWAP2 SWAP1 PUSH1 0x64 PUSH1 0x2 SWAP2 DIV SWAP2 ADD SWAP2 PUSH2 0x19E0 JUMP JUMPDEST PUSH1 0x4 SWAP2 SWAP4 SWAP3 DIV SWAP2 ADD SWAP2 CODESIZE PUSH2 0x19D5 JUMP JUMPDEST PUSH1 0x8 SWAP2 SWAP4 SWAP3 DIV SWAP2 ADD SWAP2 CODESIZE PUSH2 0x19C8 JUMP JUMPDEST PUSH1 0x10 SWAP2 SWAP4 SWAP3 DIV SWAP2 ADD SWAP2 CODESIZE PUSH2 0x19B9 JUMP JUMPDEST PUSH1 0x20 SWAP2 SWAP4 SWAP3 DIV SWAP2 ADD SWAP2 CODESIZE PUSH2 0x19A7 JUMP JUMPDEST PUSH1 0x40 SWAP4 POP DUP2 DIV SWAP2 POP CODESIZE PUSH2 0x198E JUMP JUMPDEST SWAP1 DUP2 MLOAD DUP2 LT ISZERO PUSH2 0x1ADE JUMPI ADD PUSH1 0x20 ADD SWAP1 JUMP JUMPDEST PUSH4 0x4E487B71 PUSH1 0xE0 SHL PUSH1 0x0 MSTORE PUSH1 0x32 PUSH1 0x4 MSTORE PUSH1 0x24 PUSH1 0x0 REVERT JUMPDEST PUSH1 0x40 DUP1 MLOAD PUSH8 0xFFFFFFFFFFFFFFFF SWAP3 PUSH1 0x1 PUSH1 0x1 PUSH1 0xA0 SHL SUB AND SWAP2 SWAP1 DUP1 DUP3 ADD DUP5 DUP2 GT DUP3 DUP3 LT OR PUSH2 0xB84 JUMPI DUP3 MSTORE PUSH1 0x10 DUP2 MSTORE PUSH1 0x20 SWAP2 PUSH16 0x181899199A1A9B1B9C1CB0B131B232B3 PUSH1 0x81 SHL DUP4 DUP4 ADD MSTORE DUP1 MLOAD SWAP5 PUSH1 0x60 DUP7 ADD SWAP1 DUP7 DUP3 LT SWAP1 DUP3 GT OR PUSH2 0xB84 JUMPI DUP2 MSTORE PUSH1 0x2A DUP6 MSTORE DUP3 DUP6 ADD SWAP1 CALLDATASIZE DUP3 CALLDATACOPY DUP5 MLOAD ISZERO PUSH2 0x1ADE JUMPI PUSH1 0x30 SWAP1 MSTORE8 DUP4 MLOAD SWAP3 PUSH1 0x1 SWAP4 DUP5 LT ISZERO PUSH2 0x1ADE JUMPI PUSH1 0x78 PUSH1 0x21 DUP7 ADD MSTORE8 PUSH1 0x0 JUMPDEST PUSH1 0x14 DUP2 LT PUSH2 0x1B8E JUMPI POP POP POP POP POP SWAP1 JUMP JUMPDEST PUSH1 0xC DUP2 ADD DUP1 DUP3 GT PUSH2 0x190C JUMPI DUP5 DUP2 LT ISZERO PUSH2 0x1ADE JUMPI DUP3 SWAP1 BYTE PUSH1 0x4 PUSH1 0x1 PUSH1 0x1 PUSH1 0xF8 SHL SUB NOT PUSH1 0xF DUP2 PUSH2 0x1BC0 DUP6 DUP6 SHR DUP4 AND DUP10 PUSH2 0x1ACD JUMP JUMPDEST MLOAD AND SWAP4 DUP6 DUP11 SHL SWAP5 PUSH1 0x2 SWAP1 DUP8 DUP8 DIV DUP3 EQ DUP9 ISZERO OR ISZERO PUSH2 0x1C40 JUMPI DUP7 DUP3 ADD DUP1 SWAP3 GT PUSH2 0x1C40 JUMPI PUSH2 0x1BF5 PUSH2 0x1BFD SWAP5 SWAP4 SWAP3 DUP15 SWAP3 PUSH1 0x0 BYTE SWAP3 PUSH2 0x1ACD JUMP JUMPDEST MSTORE8 AND DUP8 PUSH2 0x1ACD JUMP JUMPDEST MLOAD AND SWAP1 PUSH1 0x3 SWAP3 DUP4 ADD DUP1 SWAP4 GT PUSH2 0x1C2B JUMPI POP SWAP1 PUSH2 0x1C20 PUSH2 0x1C26 SWAP4 SWAP3 PUSH1 0x0 BYTE SWAP2 DUP10 PUSH2 0x1ACD JUMP JUMPDEST MSTORE8 PUSH2 0x18FD JUMP JUMPDEST PUSH2 0x1B7E JUMP JUMPDEST PUSH1 0x11 SWAP1 PUSH4 0x4E487B71 PUSH1 0xE0 SHL PUSH1 0x0 MSTORE MSTORE PUSH1 0x24 PUSH1 0x0 REVERT JUMPDEST PUSH1 0x11 DUP7 PUSH4 0x4E487B71 PUSH1 0xE0 SHL PUSH1 0x0 MSTORE MSTORE PUSH1 0x24 PUSH1 0x0 REVERT INVALID LOG2 PUSH5 0x6970667358 0x22 SLT KECCAK256 0xE5 RETURN EXTCODECOPY 0xAD 0xE0 0xDD DUP8 0xD1 0xAF 0xD1 0xD2 LOG0 0x5C MOD EXTCODESIZE SWAP5 0x2E 0xD6 MULMOD CHAINID 0xCA SWAP8 0xCF SLOAD 0xD 0xAE KECCAK256 LOG4 0x4B PUSH9 0x1DB64736F6C634300 ADDMOD EQ STOP CALLER "},"methodIdentifiers":{"approve(address,uint256)":"095ea7b3","balanceOf(address)":"70a08231","getApproved(uint256)":"081812fc","getWinnerData(uint256)":"d58a0e12","isApprovedForAll(address,address)":"e985e9c5","mintWinnerNFT(address,address,string,uint256,string)":"c3b34a40","name()":"06fdde03","owner()":"8da5cb5b","ownerOf(uint256)":"6352211e","renounceOwnership()":"715018a6","safeTransferFrom(address,address,uint256)":"42842e0e","safeTransferFrom(address,address,uint256,bytes)":"b88d4fde","setApprovalForAll(address,bool)":"a22cb465","setBaseURI(string)":"55f804b3","supportsInterface(bytes4)":"01ffc9a7","symbol()":"95d89b41","tokenURI(uint256)":"c87b56dd","totalSupply()":"18160ddd","transferFrom(address,address,uint256)":"23b872dd","transferOwnership(address)":"f2fde38b","winnerData(uint256)":"f4025aab"}}}}}