{
  "_format": "hh-sol-artifact-1",
  "contractName": "GameEscrow",
  "sourceName": "contracts/GameEscrow.sol",
  "abi": [
    {
      "inputs": [],
      "stateMutability": "nonpayable",
      "type": "constructor"
    },
    {
      "inputs": [
        {
          "internalType": "address",
          "name": "owner",
          "type": "address"
        }
      ],
      "name": "OwnableInvalidOwner",
      "type": "error"
    },
    {
      "inputs": [
        {
          "internalType": "address",
          "name": "account",
          "type": "address"
        }
      ],
      "name": "OwnableUnauthorizedAccount",
      "type": "error"
    },
    {
      "inputs": [],
      "name": "ReentrancyGuardReentrantCall",
      "type": "error"
    },
    {
      "anonymous": false,
      "inputs": [
        {
          "indexed": true,
          "internalType": "uint256",
          "name": "gameId",
          "type": "uint256"
        },
        {
          "indexed": true,
          "internalType": "address",
          "name": "player",
          "type": "address"
        }
      ],
      "name": "GameCancelled",
      "type": "event"
    },
    {
      "anonymous": false,
      "inputs": [
        {
          "indexed": true,
          "internalType": "uint256",
          "name": "gameId",
          "type": "uint256"
        },
        {
          "indexed": true,
          "internalType": "address",
          "name": "winner",
          "type": "address"
        },
        {
          "indexed": false,
          "internalType": "uint256",
          "name": "winnings",
          "type": "uint256"
        },
        {
          "indexed": false,
          "internalType": "uint256",
          "name": "platformFee",
          "type": "uint256"
        }
      ],
      "name": "GameCompleted",
      "type": "event"
    },
    {
      "anonymous": false,
      "inputs": [
        {
          "indexed": true,
          "internalType": "uint256",
          "name": "gameId",
          "type": "uint256"
        },
        {
          "indexed": true,
          "internalType": "address",
          "name": "player1",
          "type": "address"
        },
        {
          "indexed": false,
          "internalType": "uint256",
          "name": "wagerAmount",
          "type": "uint256"
        },
        {
          "indexed": false,
          "internalType": "address",
          "name": "wagerToken",
          "type": "address"
        },
        {
          "indexed": false,
          "internalType": "enum GameEscrow.GameMode",
          "name": "gameMode",
          "type": "uint8"
        }
      ],
      "name": "GameCreated",
      "type": "event"
    },
    {
      "anonymous": false,
      "inputs": [
        {
          "indexed": true,
          "internalType": "uint256",
          "name": "gameId",
          "type": "uint256"
        },
        {
          "indexed": true,
          "internalType": "address",
          "name": "disputedBy",
          "type": "address"
        }
      ],
      "name": "GameDisputed",
      "type": "event"
    },
    {
      "anonymous": false,
      "inputs": [
        {
          "indexed": true,
          "internalType": "uint256",
          "name": "gameId",
          "type": "uint256"
        },
        {
          "indexed": true,
          "internalType": "address",
          "name": "player2",
          "type": "address"
        }
      ],
      "name": "GameJoined",
      "type": "event"
    },
    {
      "anonymous": false,
      "inputs": [
        {
          "indexed": true,
          "internalType": "address",
          "name": "previousOwner",
          "type": "address"
        },
        {
          "indexed": true,
          "internalType": "address",
          "name": "newOwner",
          "type": "address"
        }
      ],
      "name": "OwnershipTransferred",
      "type": "event"
    },
    {
      "anonymous": false,
      "inputs": [
        {
          "indexed": true,
          "internalType": "address",
          "name": "referee",
          "type": "address"
        }
      ],
      "name": "RefereeAuthorized",
      "type": "event"
    },
    {
      "anonymous": false,
      "inputs": [
        {
          "indexed": true,
          "internalType": "address",
          "name": "referee",
          "type": "address"
        }
      ],
      "name": "RefereeRevoked",
      "type": "event"
    },
    {
      "anonymous": false,
      "inputs": [
        {
          "indexed": true,
          "internalType": "address",
          "name": "newBridge",
          "type": "address"
        }
      ],
      "name": "YellowBridgeUpdated",
      "type": "event"
    },
    {
      "inputs": [
        {
          "internalType": "address",
          "name": "",
          "type": "address"
        }
      ],
      "name": "accumulatedFees",
      "outputs": [
        {
          "internalType": "uint256",
          "name": "",
          "type": "uint256"
        }
      ],
      "stateMutability": "view",
      "type": "function"
    },
    {
      "inputs": [
        {
          "internalType": "address",
          "name": "referee",
          "type": "address"
        }
      ],
      "name": "authorizeReferee",
      "outputs": [],
      "stateMutability": "nonpayable",
      "type": "function"
    },
    {
      "inputs": [
        {
          "internalType": "address",
          "name": "",
          "type": "address"
        }
      ],
      "name": "authorizedReferees",
      "outputs": [
        {
          "internalType": "bool",
          "name": "",
          "type": "bool"
        }
      ],
      "stateMutability": "view",
      "type": "function"
    },
    {
      "inputs": [
        {
          "internalType": "uint256",
          "name": "gameId",
          "type": "uint256"
        }
      ],
      "name": "cancelGame",
      "outputs": [],
      "stateMutability": "nonpayable",
      "type": "function"
    },
    {
      "inputs": [
        {
          "internalType": "uint256",
          "name": "gameId",
          "type": "uint256"
        },
        {
          "internalType": "address",
          "name": "winner",
          "type": "address"
        },
        {
          "internalType": "bytes32",
          "name": "gameDataHash",
          "type": "bytes32"
        }
      ],
      "name": "completeGame",
      "outputs": [],
      "stateMutability": "nonpayable",
      "type": "function"
    },
    {
      "inputs": [
        {
          "internalType": "uint256",
          "name": "wagerAmount",
          "type": "uint256"
        },
        {
          "internalType": "address",
          "name": "wagerToken",
          "type": "address"
        },
        {
          "internalType": "enum GameEscrow.GameMode",
          "name": "gameMode",
          "type": "uint8"
        }
      ],
      "name": "createGame",
      "outputs": [
        {
          "internalType": "uint256",
          "name": "",
          "type": "uint256"
        }
      ],
      "stateMutability": "payable",
      "type": "function"
    },
    {
      "inputs": [
        {
          "internalType": "uint256",
          "name": "gameId",
          "type": "uint256"
        }
      ],
      "name": "createYellowSession",
      "outputs": [
        {
          "internalType": "bytes32",
          "name": "sessionId",
          "type": "bytes32"
        }
      ],
      "stateMutability": "nonpayable",
      "type": "function"
    },
    {
      "inputs": [
        {
          "internalType": "uint256",
          "name": "gameId",
          "type": "uint256"
        }
      ],
      "name": "disputeGame",
      "outputs": [],
      "stateMutability": "nonpayable",
      "type": "function"
    },
    {
      "inputs": [],
      "name": "gameIdCounter",
      "outputs": [
        {
          "internalType": "uint256",
          "name": "",
          "type": "uint256"
        }
      ],
      "stateMutability": "view",
      "type": "function"
    },
    {
      "inputs": [
        {
          "internalType": "uint256",
          "name": "",
          "type": "uint256"
        }
      ],
      "name": "games",
      "outputs": [
        {
          "internalType": "address",
          "name": "player1",
          "type": "address"
        },
        {
          "internalType": "address",
          "name": "player2",
          "type": "address"
        },
        {
          "internalType": "uint256",
          "name": "wagerAmount",
          "type": "uint256"
        },
        {
          "internalType": "address",
          "name": "wagerToken",
          "type": "address"
        },
        {
          "internalType": "enum GameEscrow.GameMode",
          "name": "gameMode",
          "type": "uint8"
        },
        {
          "internalType": "enum GameEscrow.GameStatus",
          "name": "status",
          "type": "uint8"
        },
        {
          "internalType": "address",
          "name": "winner",
          "type": "address"
        },
        {
          "internalType": "uint256",
          "name": "createdAt",
          "type": "uint256"
        },
        {
          "internalType": "uint256",
          "name": "completedAt",
          "type": "uint256"
        },
        {
          "internalType": "bytes32",
          "name": "gameDataHash",
          "type": "bytes32"
        }
      ],
      "stateMutability": "view",
      "type": "function"
    },
    {
      "inputs": [],
      "name": "getActiveGamesCount",
      "outputs": [
        {
          "internalType": "uint256",
          "name": "count",
          "type": "uint256"
        }
      ],
      "stateMutability": "view",
      "type": "function"
    },
    {
      "inputs": [
        {
          "internalType": "uint256",
          "name": "gameId",
          "type": "uint256"
        }
      ],
      "name": "getGame",
      "outputs": [
        {
          "components": [
            {
              "internalType": "address",
              "name": "player1",
              "type": "address"
            },
            {
              "internalType": "address",
              "name": "player2",
              "type": "address"
            },
            {
              "internalType": "uint256",
              "name": "wagerAmount",
              "type": "uint256"
            },
            {
              "internalType": "address",
              "name": "wagerToken",
              "type": "address"
            },
            {
              "internalType": "enum GameEscrow.GameMode",
              "name": "gameMode",
              "type": "uint8"
            },
            {
              "internalType": "enum GameEscrow.GameStatus",
              "name": "status",
              "type": "uint8"
            },
            {
              "internalType": "address",
              "name": "winner",
              "type": "address"
            },
            {
              "internalType": "uint256",
              "name": "createdAt",
              "type": "uint256"
            },
            {
              "internalType": "uint256",
              "name": "completedAt",
              "type": "uint256"
            },
            {
              "internalType": "bytes32",
              "name": "gameDataHash",
              "type": "bytes32"
            }
          ],
          "internalType": "struct GameEscrow.Game",
          "name": "",
          "type": "tuple"
        }
      ],
      "stateMutability": "view",
      "type": "function"
    },
    {
      "inputs": [
        {
          "internalType": "address",
          "name": "player",
          "type": "address"
        }
      ],
      "name": "getPlayerGames",
      "outputs": [
        {
          "internalType": "uint256[]",
          "name": "",
          "type": "uint256[]"
        }
      ],
      "stateMutability": "view",
      "type": "function"
    },
    {
      "inputs": [
        {
          "internalType": "uint256",
          "name": "gameId",
          "type": "uint256"
        }
      ],
      "name": "joinGame",
      "outputs": [],
      "stateMutability": "payable",
      "type": "function"
    },
    {
      "inputs": [],
      "name": "owner",
      "outputs": [
        {
          "internalType": "address",
          "name": "",
          "type": "address"
        }
      ],
      "stateMutability": "view",
      "type": "function"
    },
    {
      "inputs": [],
      "name": "platformFeeBps",
      "outputs": [
        {
          "internalType": "uint256",
          "name": "",
          "type": "uint256"
        }
      ],
      "stateMutability": "view",
      "type": "function"
    },
    {
      "inputs": [
        {
          "internalType": "address",
          "name": "",
          "type": "address"
        },
        {
          "internalType": "uint256",
          "name": "",
          "type": "uint256"
        }
      ],
      "name": "playerGames",
      "outputs": [
        {
          "internalType": "uint256",
          "name": "",
          "type": "uint256"
        }
      ],
      "stateMutability": "view",
      "type": "function"
    },
    {
      "inputs": [],
      "name": "renounceOwnership",
      "outputs": [],
      "stateMutability": "nonpayable",
      "type": "function"
    },
    {
      "inputs": [
        {
          "internalType": "uint256",
          "name": "gameId",
          "type": "uint256"
        },
        {
          "internalType": "uint8",
          "name": "resolution",
          "type": "uint8"
        }
      ],
      "name": "resolveDispute",
      "outputs": [],
      "stateMutability": "nonpayable",
      "type": "function"
    },
    {
      "inputs": [
        {
          "internalType": "address",
          "name": "referee",
          "type": "address"
        }
      ],
      "name": "revokeReferee",
      "outputs": [],
      "stateMutability": "nonpayable",
      "type": "function"
    },
    {
      "inputs": [
        {
          "internalType": "uint256",
          "name": "newFeeBps",
          "type": "uint256"
        }
      ],
      "name": "setPlatformFee",
      "outputs": [],
      "stateMutability": "nonpayable",
      "type": "function"
    },
    {
      "inputs": [
        {
          "internalType": "address",
          "name": "bridge",
          "type": "address"
        }
      ],
      "name": "setYellowBridge",
      "outputs": [],
      "stateMutability": "nonpayable",
      "type": "function"
    },
    {
      "inputs": [
        {
          "internalType": "address",
          "name": "newOwner",
          "type": "address"
        }
      ],
      "name": "transferOwnership",
      "outputs": [],
      "stateMutability": "nonpayable",
      "type": "function"
    },
    {
      "inputs": [],
      "name": "winnerNFT",
      "outputs": [
        {
          "internalType": "contract OrbitWinnerNFT",
          "name": "",
          "type": "address"
        }
      ],
      "stateMutability": "view",
      "type": "function"
    },
    {
      "inputs": [
        {
          "internalType": "address",
          "name": "token",
          "type": "address"
        }
      ],
      "name": "withdrawFees",
      "outputs": [],
      "stateMutability": "nonpayable",
      "type": "function"
    },
    {
      "inputs": [],
      "name": "yellowNetworkBridge",
      "outputs": [
        {
          "internalType": "address",
          "name": "",
          "type": "address"
        }
      ],
      "stateMutability": "view",
      "type": "function"
    },
    {
      "stateMutability": "payable",
      "type": "receive"
    }
  ],
  "bytecode": "0x608080604052346100fd576000906001825533156100e95750600180546001600160a01b03198082163390811790935560405190936001600160a01b0393909284167f8be0079c531659141344cd1fd0a4f28419497f9722a3daafe3b4186f6b6457e08480a360fa600655338252600560205260408220805460ff19166001179055612034818101906001600160401b038211838310176100d557908291620021d08339039082f09081156100c95750169060095416176009556040516120cd9081620001038239f35b604051903d90823e3d90fd5b634e487b7160e01b84526041600452602484fd5b602491631e4fbdf760e01b82526004820152fd5b600080fdfe6080604052600436101561001b575b361561001957600080fd5b005b60003560e01c80630a5694c214611b9e578063117a5b9014611aed578063129daf8414611a3957806312e8e2c3146119db578063164e68de146118ee5780631bb412d6146118d05780632193ffe21461186957806322dcd13e1461184b57806342a44a9b146117e257806369958ab9146115e7578063715018a61461158a57806372a4db27146114ac57806372aeb81f1461143657806373f4d7ea1461140d57806377901b64146113ce5780637cd7c64114610e785780637da2a9d414610e1257806387af227814610cf25780638da5cb5b14610cc9578063a2f77bcc14610b21578063a4d290c214610af8578063c92398fb14610845578063e55e421114610457578063efaa55a014610206578063f2fde38b1461017d5763fcf666640361000e5734610178576020366003190112610178576001600160a01b0361015f611bf6565b1660005260076020526020604060002054604051908152f35b600080fd5b3461017857602036600319011261017857610196611bf6565b61019e611c6a565b6001600160a01b039081169081156101ed57600154826001600160601b0360a01b821617600155167f8be0079c531659141344cd1fd0a4f28419497f9722a3daafe3b4186f6b6457e0600080a3005b604051631e4fbdf760e01b815260006004820152602490fd5b602080600319360112610178576004359061021f611dec565b61022c6002548310611e0f565b816000526003815260406000209060038201805460ff8160a81c166005811015610441576104075760018401805490916001600160a01b039182166103ce578186541633146103895716806102f1575061028d600260049501543414611d54565b336001600160601b0360a01b825416179055600160a81b60ff60a81b1982541617905533600052526102c3816040600020611db2565b33907f45c4f9cbafe186141862608c493f28b823fde4c2142bedc3f5169961a73fdd22600080a36001600055005b610337849160026000976103053415611c96565b01546040516323b872dd60e01b8152336004820152306024820152604481019190915296879283919082906064820190565b03925af193841561037d57600494610350575b5061028d565b61036f90843d8611610376575b6103678183611d1a565b810190611d3c565b508561034a565b503d61035d565b6040513d6000823e3d90fd5b60405162461bcd60e51b815260048101869052601c60248201527f43616e6e6f7420706c617920616761696e737420796f757273656c66000000006044820152606490fd5b60405162461bcd60e51b815260048101869052601160248201527011d85b5948185b1c9958591e48199d5b1b607a1b6044820152606490fd5b60405162461bcd60e51b815260048101849052601260248201527147616d65206e6f7420617661696c61626c6560701b6044820152606490fd5b634e487b7160e01b600052602160045260246000fd5b346101785760403660031901126101785760043560243560ff811680910361017857610481611c6a565b60029061049082548410611e0f565b610498611dec565b82600052602060038152604060002093600385019283549060ff8260a81c1660058110156104415760040361080c578581116107d25760ff60a81b198216600160a91b1785554260068801558061063b57505082546001600160a01b03939084169150816105575750505060008080859484600183808080809a6105489d5416968c01968754905af19761052a611e9a565b500154169054905af161053b611e9a565b508161054f575b50611f94565b6001600055005b905082610542565b8554948601805460405163a9059cbb60e01b8082529787166001600160a01b03166004820152602481019190915293969395939290919087908790816000816044810103925af194851561037d576001816000936105ea998b9961061e575b505416940154169154936040519687958694859384526004840160209093929193604081019460018060a01b031681520152565b03925af1801561037d57610600575b5050610548565b8161061692903d10610376576103678183611d1a565b5080806105f9565b610634908a3d8c11610376576103678183611d1a565b508b6105b6565b939591949093909291906001036107be5780546001600160a01b0316905b60048101968460018060a01b0392838516998a6001600160601b0360a01b82541617905501548060011b9581870414901517156107a857816106ab6127106106a360065489611e51565b048097611e64565b96166000526007845260406000206106c4868254611e71565b905554168061071c575091839161070e60008080807fa3a193cd49fb44d3709b2d13235998e900d960268b8356d3c2233340fd215c38996040995af1610708611e9a565b50611eca565b8351928352820152a3610548565b60405163a9059cbb60e01b81526001600160a01b039290921660048301526024820185905290939192908390859060449082906000905af192831561037d577fa3a193cd49fb44d3709b2d13235998e900d960268b8356d3c2233340fd215c389460409461078b575b5061070e565b6107a190823d8411610376576103678183611d1a565b5087610785565b634e487b7160e01b600052601160045260246000fd5b60018101546001600160a01b031690610659565b60405162461bcd60e51b815260048101859052601260248201527124b73b30b634b2103932b9b7b63aba34b7b760711b6044820152606490fd5b60405162461bcd60e51b815260048101859052601160248201527011d85b59481b9bdd08191a5cdc1d5d1959607a1b6044820152606490fd5b606036600319011261017857610859611c0c565b600360443510156101785761086c611dec565b60043515610abf576001600160a01b038116610a4f5761088f6004353414611d54565b60025461089b81611d97565b600255604051916108ab83611ce1565b3383526020830160008152604084019360043585526060810160018060a01b038416815260808201906108e060443583611da6565b600060a0840181815260c085018290524260e086015261010085018290526101208501829052878252600360208190526040909220855181546001600160a01b03199081166001600160a01b03928316178355975160018301805490991690821617909755985160028a015591518882015493519895169391908810156104415751916005831015610441576020976007946101209460ff60a81b9060a81b169269ffffffffffffffffffff60b01b16179060ff60a01b9060a01b16171760038501556004840160018060a01b0360c0830151166001600160601b0360a01b82541617905560e081015160058501556101008101516006850155015191015533600052600483526109f5826040600020611db2565b6040805160043581526001600160a01b0390921684830152610a1b908201604435611c50565b817fabd75ec9f1a7c8f5cf37dbf68608fa6e61d2986cf77cf390a28eca7b1d4b4dca60603393a36001600055604051908152f35b610a593415611c96565b6040516323b872dd60e01b81523360048083019190915230602483015235604482015260208160648160006001600160a01b0387165af1801561037d57610aa1575b5061088f565b610ab89060203d8111610376576103678183611d1a565b5081610a9b565b60405162461bcd60e51b815260206004820152601160248201527005761676572206d757374206265203e203607c1b6044820152606490fd5b34610178576000366003190112610178576009546040516001600160a01b039091168152602090f35b34610178576020366003190112610178576004356000610120604051610b4681611ce1565b8281528260208201528260408201528260608201528260808201528260a08201528260c08201528260e0820152826101008201520152610b896002548210611e0f565b60005260036020526040600020604051610ba281611ce1565b81546001600160a01b039081168252600183015481166020830152600283015460408301526003830154908116606083015260ff90610bea60a082901c831660808501611da6565b60a81c166005811015610441576101409260079160a084015260018060a01b0360048201541660c0840152600581015460e0840152600681015461010084015201546101208201526101206040519160018060a01b03815116835260018060a01b0360208201511660208401526040810151604084015260018060a01b036060820151166060840152610c8560808201516080850190611c50565b610c9760a082015160a0850190611c5d565b60c0818101516001600160a01b03169084015260e0808201519084015261010080820151908401520151610120820152f35b34610178576000366003190112610178576001546040516001600160a01b039091168152602090f35b3461017857602036600319011261017857600435610d136002548210611e0f565b60008181526003602052604090208054610d4391336001600160a01b0392831614918215610e00575b5050611f54565b8060005260036020526003604060002001805460ff8160a81c1660058110156104415760018114908115610df5575b5015610db05760ff60a81b1916600160aa1b17905533907f8fd73c8c4472189916c71b5cf4047bc9088a7481f333c1063fa93e70f1a469f8600080a3005b60405162461bcd60e51b815260206004820152601860248201527f43616e6e6f74206469737075746520746869732067616d6500000000000000006044820152606490fd5b600291501484610d72565b90915060013392015416148380610d3c565b3461017857602036600319011261017857610e2b611bf6565b610e33611c6a565b6001600160a01b03166000818152600560205260408120805460ff191690557f2d9125815ff94ed1f67bcaed3480c73af82b355e90de77479081cd2ed35f9a1c9080a2005b3461017857606036600319011261017857610e91611c0c565b33600052600560205260ff604060002054161561139057610eb760025460043510611e0f565b610ebf611dec565b600435600052600360205260406000209060038201549160ff8360a81c166005811015610441576001036113595780546001600160a01b038381169116148015611340575b156112fb5760ff60a81b198316600160a91b1760038201556004810180546001600160a01b0319166001600160a01b038416179055426006820155604435600782015560028082015491908215600184901b84900490911417156107a857610f82612710610f776006548560011b611e51565b04809360011b611e64565b9360018060a01b031660005260076020526040600020610fa3838254611e71565b905560038101546001600160a01b0316806112985750610fcd600080808088885af1610708611e9a565b610fe060ff600383015460a01c16611fd4565b60095482546001600160a01b03918216939291908116908616810361128f575060018201546001600160a01b0316916002905b0154600093600435939091847a184f03e93ff9f4daa797ed6e38ed64bf6a1f0100000000000000008082101561127f575b506d04ee2d6d415b85acef810000000080821015611272575b50662386f26fc1000080821015611265575b506305f5e10080821015611258575b50612710811015611249575b606481101561123b575b600a80911015611231575b60018701958160216110c96110b38a611e7e565b996110c16040519b8c611d1a565b808b52611e7e565b60208a019a90601f1901368c378901015b60001901916f181899199a1a9b1b9c1cb0b131b232b360811b8282061a835304908a821561110a575082906110da565b925050506111b360009261114a61115a602d60209a61119c9c6040519485926c6f726269742d77696e6e65722d60981b8f85015251809285850190611f0c565b810103600d810184520182611d1a565b60405163030ecd2960e61b81526001600160a01b03948516600482015293909516602484015260a06044840152919788968795869492909160a4860190611f2f565b916064850152600319848303016084850152611f2f565b03925af1801561037d57611206575b50604051928352602083015260018060a01b0316907fa3a193cd49fb44d3709b2d13235998e900d960268b8356d3c2233340fd215c38604060043592a36001600055005b602090813d831161122a575b61121c8183611d1a565b8101031261017857836111c2565b503d611212565b956001019561109f565b606460029104960195611094565b6127106004910496019561108a565b600891049601958a61107e565b601091049601958a61106f565b602091049601958a61105d565b604097506004350490508a611044565b60029092611013565b60405163a9059cbb60e01b81526001600160a01b03851660048201526024810186905290602090829060449082906000905af1801561037d576112dc575b50610fcd565b6112f49060203d602011610376576103678183611d1a565b50846112d6565b60405162461bcd60e51b815260206004820152601760248201527f57696e6e6572206d757374206265206120706c617965720000000000000000006044820152606490fd5b5060018101546001600160a01b03838116911614610f04565b60405162461bcd60e51b815260206004820152600f60248201526e47616d65206e6f742061637469766560881b6044820152606490fd5b60405162461bcd60e51b81526020600482015260166024820152754e6f7420617574686f72697a6564207265666572656560501b6044820152606490fd5b34610178576020366003190112610178576001600160a01b036113ef611bf6565b166000526005602052602060ff604060002054166040519015158152f35b34610178576000366003190112610178576008546040516001600160a01b039091168152602090f35b3461017857600036600319011261017857600080600254905b81811061146157602083604051908152f35b8060005260ff6003806020526040600020015460a81c16600581101561044157600114611497575b61149290611d97565b61144f565b916114a461149291611d97565b929050611489565b34610178576020366003190112610178576004356114cd6002548210611e0f565b80600052600360205260ff60036040600020015460a81c1660058110156104415760010361154f5760405190602082019081524260408301523360601b606083015260548252608082019082821067ffffffffffffffff83111761153957602092826040525190208152f35b634e487b7160e01b600052604160045260246000fd5b60405162461bcd60e51b815260206004820152601360248201527247616d65206d7573742062652061637469766560681b6044820152606490fd5b34610178576000366003190112610178576115a3611c6a565b600180546001600160a01b031981169091556000906001600160a01b03167f8be0079c531659141344cd1fd0a4f28419497f9722a3daafe3b4186f6b6457e08280a3005b3461017857602080600319360112610178576004359061160a6002548310611e0f565b6000828152600382526040902080546001600160a01b039161163891831633149081156117d2575b50611f54565b611640611dec565b82600052600382526040600020916003830180549060ff8260a81c1660058110156104415761178d57836001860154166117485760ff60a81b198216600360a81b1790558216806116d85750506000808084600282956116aa975416910154905af1610542611e9a565b33907f58f64e02b3a6d2a3bd28b7700a0a0d6699545bcb55bf917ac0ff670f3a509efb600080a36001600055005b835460029094015460405163a9059cbb60e01b8152939094166001600160a01b0316600484015260248301939093529182908290816000816044810103925af1801561037d5761172a575b50506116aa565b8161174092903d10610376576103678183611d1a565b508180611723565b60405162461bcd60e51b815260048101849052601760248201527f506c61796572203220616c7265616479206a6f696e65640000000000000000006044820152606490fd5b60405162461bcd60e51b815260048101849052601960248201527f43616e6e6f742063616e63656c206163746976652067616d65000000000000006044820152606490fd5b6001015483163314905085611632565b34610178576020366003190112610178576117fb611bf6565b611803611c6a565b6001600160a01b03166000818152600560205260408120805460ff191660011790557f981ac5cae2fb338fa3b83661b9db1adf2471e4dd1e089498a55476854339dd1b9080a2005b34610178576000366003190112610178576020600654604051908152f35b3461017857602036600319011261017857611882611bf6565b61188a611c6a565b600880546001600160a01b0319166001600160a01b039290921691821790557f6387e6721c9b8e49669c1d962e31fe0ea2c1467b3106425bc787d42d5208d6d7600080a2005b34610178576000366003190112610178576020600254604051908152f35b346101785760208060031936011261017857611908611bf6565b611910611c6a565b611918611dec565b6001600160a01b039081166000818152600784526040902054929083156119a05760008181526007835260408120558061196657505060008080610548948194600154165af1610708611e9a565b60015460405163a9059cbb60e01b815293166001600160a01b031660048401526024830193909352918290829081600081604481016105ea565b60405162461bcd60e51b81526004810183905260136024820152724e6f206665657320746f20776974686472617760681b6044820152606490fd5b34610178576020366003190112610178576004356119f7611c6a565b6103e88111611a0557600655005b60405162461bcd60e51b815260206004820152600c60248201526b08ccaca40e8dede40d0d2ced60a31b6044820152606490fd5b3461017857602080600319360112610178576001600160a01b03611a5b611bf6565b1660005260048152604060002060405190818382549182815201908192600052846000209060005b86828210611ad9578686611a9982880383611d1a565b604051928392818401908285525180915260408401929160005b828110611ac257505050500390f35b835185528695509381019392810192600101611ab3565b835485529093019260019283019201611a83565b34610178576020366003190112610178576004356000526003602052610140604060002060018060a01b0380825416918160018201541691600282015490611b86600384015482600486015416926005860154946007600688015497015497604051998a5260208a0152604089015281166060880152611b766080880160ff8360a01c16611c50565b60ff60a088019160a81c16611c5d565b60c085015260e0840152610100830152610120820152f35b3461017857604036600319011261017857611bb7611bf6565b6001600160a01b031660009081526004602052604090208054602435919082101561017857602091611be891611c22565b90546040519160031b1c8152f35b600435906001600160a01b038216820361017857565b602435906001600160a01b038216820361017857565b8054821015611c3a5760005260206000200190600090565b634e487b7160e01b600052603260045260246000fd5b9060038210156104415752565b9060058210156104415752565b6001546001600160a01b03163303611c7e57565b60405163118cdaa760e01b8152336004820152602490fd5b15611c9d57565b606460405162461bcd60e51b815260206004820152602060248201527f446f206e6f742073656e6420455448207769746820746f6b656e2077616765726044820152fd5b610140810190811067ffffffffffffffff82111761153957604052565b6040810190811067ffffffffffffffff82111761153957604052565b90601f8019910116810190811067ffffffffffffffff82111761153957604052565b90816020910312610178575180151581036101785790565b15611d5b57565b60405162461bcd60e51b8152602060048201526014602482015273125b98dbdc9c9958dd0811551208185b5bdd5b9d60621b6044820152606490fd5b60001981146107a85760010190565b60038210156104415752565b80546801000000000000000081101561153957611dd491600182018155611c22565b819291549060031b91821b91600019901b1916179055565b600260005414611dfd576002600055565b604051633ee5aeb560e01b8152600490fd5b15611e1657565b60405162461bcd60e51b815260206004820152601360248201527211d85b5948191bd95cc81b9bdd08195e1a5cdd606a1b6044820152606490fd5b818102929181159184041417156107a857565b919082039182116107a857565b919082018092116107a857565b67ffffffffffffffff811161153957601f01601f191660200190565b3d15611ec5573d90611eab82611e7e565b91611eb96040519384611d1a565b82523d6000602084013e565b606090565b15611ed157565b60405162461bcd60e51b8152602060048201526013602482015272115512081d1c985b9cd9995c8819985a5b1959606a1b6044820152606490fd5b60005b838110611f1f5750506000910152565b8181015183820152602001611f0f565b90602091611f4881518092818552858086019101611f0c565b601f01601f1916010190565b15611f5b57565b60405162461bcd60e51b81526020600482015260116024820152702737ba10309033b0b6b290383630bcb2b960791b6044820152606490fd5b15611f9b57565b60405162461bcd60e51b8152602060048201526011602482015270115512081c99599d5b990819985a5b1959607a1b6044820152606490fd5b600381101561044157801561206d576001811461203d5760021461201557604051611ffe81611cfe565b60078152662ab735b737bbb760c91b602082015290565b60405161202181611cfe565b600c81526b5461626c652054656e6e697360a01b602082015290565b5060405161204a81611cfe565b6013815272526f636b2050617065722053636973736f727360681b602082015290565b5060405161207a81611cfe565b600d81526c50757368757020426174746c6560981b60208201529056fea2646970667358221220d3ef850c69d3cdcfda699dd2968e2a5a1f02821ab5d32d874f3db2a305554c3e64736f6c634300081400336080346200034d576040906001600160401b03908083018281118282101762000337578352600c81526020906b27b93134ba102bb4b73732b960a11b8282015283518481018181108582111762000337578552600981526827a92124aa16aba4a760b91b8382015281519380851162000337576000948062000082875462000352565b94601f9586811162000307575b5086908683116001146200029f57889262000293575b50508160011b916000199060031b1c19161785555b81519081116200027f5780600192620000d4845462000352565b85811162000244575b508590858311600114620001e0578792620001d4575b5050600019600383901b1c191690821b1790555b3315620001bc5760068054336001600160a01b0319821681179092556001600160a01b03167f8be0079c531659141344cd1fd0a4f28419497f9722a3daafe3b4186f6b6457e08580a36200015d60085462000352565b918183116200019a575b7f68747470733a2f2f6f726269742e6170702f6170692f6e66742f0000000000346008558451611c8b9081620003a98239f35b836008620001b2955220910160051c8101906200038f565b3880808062000167565b8351631e4fbdf760e01b815260048101849052602490fd5b015190503880620000f3565b8488528688208594509190601f198416895b898282106200022d575050841162000213575b505050811b01905562000107565b015160001960f88460031b161c1916905538808062000205565b8385015186558897909501949384019301620001f2565b6200026e908589528789208780860160051c8201928a871062000275575b0160051c01906200038f565b38620000dd565b9250819262000262565b634e487b7160e01b85526041600452602485fd5b015190503880620000a5565b8880528789209250601f198416895b89828210620002f0575050908460019594939210620002d6575b505050811b018555620000ba565b015160001960f88460031b161c19169055388080620002c8565b6001859682939686015181550195019301620002ae565b6200033090898052888a208880860160051c8201928b871062000275570160051c01906200038f565b386200008f565b634e487b7160e01b600052604160045260246000fd5b600080fd5b90600182811c9216801562000384575b60208310146200036e57565b634e487b7160e01b600052602260045260246000fd5b91607f169162000362565b8181106200039b575050565b600081556001016200038f56fe608080604052600436101561001357600080fd5b60003560e01c90816301ffc9a7146113035750806306fdde0314611260578063081812fc14611222578063095ea7b31461113b57806318160ddd1461111d57806323b872dd1461110657806342842e0e146110d857806355f804b314610f5e5780636352211e14610f2e57806370a0823114610ed5578063715018a614610e785780638da5cb5b14610e4f57806395d89b4114610d70578063a22cb46514610ccb578063b88d4fde14610c5d578063c3b34a4014610656578063c87b56dd146103a9578063d58a0e1214610287578063e985e9c514610231578063f2fde38b146101a35763f4025aab1461010657600080fd5b3461019e57602036600319011261019e576004356000526009602052604060002060018060a01b0361019a8183541691600184015416926101496002820161151c565b60038201549161018261016360056004840154930161151c565b926040519788978852602088015260c0604088015260c0870190611391565b926060860152608085015283820360a0850152611391565b0390f35b600080fd5b3461019e57602036600319011261019e576101bc6113b6565b6101c46115c2565b6001600160a01b0390811690811561021857600654826bffffffffffffffffffffffff60a01b821617600655167f8be0079c531659141344cd1fd0a4f28419497f9722a3daafe3b4186f6b6457e0600080a3005b604051631e4fbdf760e01b815260006004820152602490fd5b3461019e57604036600319011261019e5761024a6113b6565b6102526113cc565b9060018060a01b03809116600052600560205260406000209116600052602052602060ff604060002054166040519015158152f35b3461019e5760208060031936011261019e5760043590606060a06040516102ad81611417565b60008152600084820152826040820152600083820152600060808201520152816000526002815260018060a01b03916102ee83604060002054161515611922565b6000526009815261019a60406000206040519261030a84611417565b848254168452846001830154169181850192835261038a61032d6002830161151c565b60408701908152876003840154956060890196875261035a600560048701549660808c019788520161151c565b9560a08a019687526040519a8b9a828c525116908a0152511660408801525160c0606088015260e0870190611391565b925160808601525160a085015251838203601f190160c0850152611391565b3461019e5760208060031936011261019e5760043590816000526002815260018060a01b036103e081604060002054161515611922565b8260005260098252604060002092604051906103fb82611417565b82855416825281600195848782015416948683019586526104876104806104776104276002860161151c565b936040870194855261046f8161046761045a600560038b01549a60608d019b8c52608060048201549d019c8d520161151c565b9a60a08d019b8c52611965565b9a5116611af4565b995116611af4565b92519351611965565b9351611965565b93519587604051998a97600091600854906104a1826114e2565b9181811690811561063957506001146105d8575b505091816104d58460369b9a9896946105c49d9a9896519485920161136e565b01673f77696e6e65723d60c01b81526104f7825180938d60088501910161136e565b0169266f70706f6e656e743d60b01b600882015261051e825180938c60128501910161136e565b01652667616d653d60d01b6012820152610541825180938b60188501910161136e565b01662677616765723d60c81b6018820152610565825180938a601f8501910161136e565b016a2674696d657374616d703d60a81b601f82015261058d8251809389602a8501910161136e565b016b2673637265656e73686f743d60a01b602a8201526105b58251809388878501910161136e565b0103601681018552018361144f565b61019a604051928284938452830190611391565b9091925060086000527ff3f7a9fe364faab93b216da50a3214154f22a0a2b415b23a84c8169e8b636ee3906000915b83831061061f575050508801820190806104d56104b5565b80549b830186019b909b528d9a8d95909201918101610607565b60ff1916868d0152505080151502890183019150806104d56104b5565b3461019e5760a036600319011261019e5761066f6113b6565b6106776113cc565b60443567ffffffffffffffff811161019e576106979036906004016114c4565b60843567ffffffffffffffff811161019e576106b79036906004016114c4565b916106c06115c2565b600754926106cd846118fd565b600755604051906106dd82611417565b6001600160a01b03868116835292831660208084019182526040808501878152606435606087015242608087015260a0860194909452600088815260099092529020835181549086166001600160a01b03199182161782559151600182018054919096169216919091179093555180519067ffffffffffffffff8211610b845761076a60028501546114e2565b601f8111610c16575b50602090601f8311600114610ba55760a093929160009183610b9a575b50508160011b916000199060031b1c19161760028401555b6060810151600384015560808101516004840155015180519067ffffffffffffffff8211610b84576107dd60058401546114e2565b601f8111610b3d575b50602090601f8311600114610acf576005929160009183610ac4575b50508160011b916000199060031b1c1916179101555b60405161082481611433565b600081526001600160a01b03841615610aab576000838152600260205260409020546001600160a01b031680151590849082610a74575b6001600160a01b0387166000818152600360209081526040808320805460010190558583526002909152812080546001600160a01b031916831790559091907fddf252ad1be2c89b69c2b068fc378daa952ba7f163c4a11628f55a4df523b3ef9080a4610a5b57833b610925575b5091817ff65f8af45d2c7b79a3f8a4ca6a7769347f5c993567035809652d932123642a00610907602095604051918291604083526040830190611391565b606435828901526001600160a01b03909516940390a3604051908152f35b6040516020818061095f630a85bd0160e11b9586835233600484015260006024840152886044840152608060648401526084830190611391565b038160006001600160a01b038a165af160009181610a16575b506109e057843d156109d8573d9061098f82611471565b9161099d604051938461144f565b82523d6000602084013e5b815191826109d157604051633250574960e11b81526001600160a01b0383166004820152602490fd5b6020915001fd5b6060906109a8565b6001600160e01b031916036109f557816108c9565b604051633250574960e11b81526001600160a01b0384166004820152602490fd5b9091506020813d602011610a53575b81610a326020938361144f565b8101031261019e57516001600160e01b03198116810361019e579086610978565b3d9150610a25565b6040516339e3563760e11b815260006004820152602490fd5b600082815260046020526040902080546001600160a01b03191690558060005260036020526040600020600019815401905561085b565b604051633250574960e11b815260006004820152602490fd5b015190508780610802565b90601f198316916005850160005260206000209260005b818110610b2557509160019391856005969410610b0c575b505050811b01910155610818565b015160001960f88460031b161c19169055878080610afe565b92936020600181928786015181550195019301610ae6565b600584016000526020600020601f840160051c810160208510610b7d575b601f830160051c82018110610b715750506107e6565b60008155600101610b5b565b5080610b5b565b634e487b7160e01b600052604160045260246000fd5b015190508880610790565b90601f198316916002860160005260206000209260005b818110610bfe575091600193918560a097969410610be5575b505050811b0160028401556107a8565b015160001960f88460031b161c19169055888080610bd5565b92936020600181928786015181550195019301610bbc565b600285016000526020600020601f840160051c810160208510610c56575b601f830160051c82018110610c4a575050610773565b60008155600101610c34565b5080610c34565b3461019e57608036600319011261019e57610c766113b6565b610c7e6113cc565b906044356064359267ffffffffffffffff841161019e573660238501121561019e57610cb7610cc994369060248160040135910161148d565b92610cc38383836115ee565b336117af565b005b3461019e57604036600319011261019e57610ce46113b6565b6024359081151580920361019e576001600160a01b0316908115610d5757336000526005602052604060002082600052602052604060002060ff1981541660ff83161790556040519081527f17307eab39ab6107e8899845ad3d59bd9653f200f220920489ca2b5937696c3160203392a3005b604051630b61174360e31b815260048101839052602490fd5b3461019e57600036600319011261019e5760405160006001805490610d94826114e2565b80855291818116908115610e285750600114610dcf575b61019a84610dbb8186038261144f565b604051918291602083526020830190611391565b600081815292507fb10e2d527612073b26eecdfd717e6a320cf44b4afac2b0732d9fcbe2b7fa0cf65b828410610e10575050508101602001610dbb82610dab565b80546020858701810191909152909301928101610df8565b60ff191660208087019190915292151560051b85019092019250610dbb9150839050610dab565b3461019e57600036600319011261019e576006546040516001600160a01b039091168152602090f35b3461019e57600036600319011261019e57610e916115c2565b600680546001600160a01b031981169091556000906001600160a01b03167f8be0079c531659141344cd1fd0a4f28419497f9722a3daafe3b4186f6b6457e08280a3005b3461019e57602036600319011261019e576001600160a01b03610ef66113b6565b168015610f155760005260036020526020604060002054604051908152f35b6040516322718ad960e21b815260006004820152602490fd5b3461019e57602036600319011261019e576020610f4c600435611774565b6040516001600160a01b039091168152f35b3461019e5760208060031936011261019e5767ffffffffffffffff60043581811161019e57610f919036906004016114c4565b91610f9a6115c2565b8251918211610b8457610fae6008546114e2565b601f8111611074575b5080601f8311600114610ff357508192600092610fe8575b5050600019600383901b1c191660019190911b17600855005b015190508280610fcf565b90601f1983169360086000527ff3f7a9fe364faab93b216da50a3214154f22a0a2b415b23a84c8169e8b636ee3926000905b86821061105c5750508360019510611043575b505050811b01600855005b015160001960f88460031b161c19169055828080611038565b80600185968294968601518155019501930190611025565b60086000527ff3f7a9fe364faab93b216da50a3214154f22a0a2b415b23a84c8169e8b636ee3601f840160051c8101918385106110ce575b601f0160051c01905b8181106110c25750610fb7565b600081556001016110b5565b90915081906110ac565b3461019e57610cc96110e9366113e2565b90604051926110f784611433565b60008452610cc38383836115ee565b3461019e57610cc9611117366113e2565b916115ee565b3461019e57600036600319011261019e576020600754604051908152f35b3461019e57604036600319011261019e576111546113b6565b60243561116081611774565b3315158061120f575b806111e2575b6111ca576001600160a01b039283169282918491167f8c5be1e5ebec7d5bd14f71427d1e84f3dd0314c0f7b2291e5b200ac8c7c3b925600080a4600090815260046020526040902080546001600160a01b0319169091179055005b60405163a9fbf51f60e01b8152336004820152602490fd5b5060018060a01b038116600052600560205260406000203360005260205260ff604060002054161561116f565b506001600160a01b038116331415611169565b3461019e57602036600319011261019e5760043561123f81611774565b506000526004602052602060018060a01b0360406000205416604051908152f35b3461019e57600036600319011261019e5760405160008054611281816114e2565b80845290600190818116908115610e2857506001146112aa5761019a84610dbb8186038261144f565b600080805292507f290decd9548b62a8d60345a988386fc84ba6bc95484008f6362f93160ef3e5635b8284106112eb575050508101602001610dbb82610dab565b805460208587018101919091529093019281016112d3565b3461019e57602036600319011261019e576004359063ffffffff60e01b821680920361019e576020916380ac58cd60e01b811490811561135d575b811561134c575b5015158152f35b6301ffc9a760e01b14905083611345565b635b5e139f60e01b8114915061133e565b60005b8381106113815750506000910152565b8181015183820152602001611371565b906020916113aa8151809281855285808601910161136e565b601f01601f1916010190565b600435906001600160a01b038216820361019e57565b602435906001600160a01b038216820361019e57565b606090600319011261019e576001600160a01b0390600435828116810361019e5791602435908116810361019e579060443590565b60c0810190811067ffffffffffffffff821117610b8457604052565b6020810190811067ffffffffffffffff821117610b8457604052565b90601f8019910116810190811067ffffffffffffffff821117610b8457604052565b67ffffffffffffffff8111610b8457601f01601f191660200190565b92919261149982611471565b916114a7604051938461144f565b82948184528183011161019e578281602093846000960137010152565b9080601f8301121561019e578160206114df9335910161148d565b90565b90600182811c92168015611512575b60208310146114fc57565b634e487b7160e01b600052602260045260246000fd5b91607f16916114f1565b9060405191826000825492611530846114e2565b90818452600194858116908160001461159f575060011461155c575b505061155a9250038361144f565b565b9093915060005260209081600020936000915b81831061158757505061155a9350820101388061154c565b8554888401850152948501948794509183019161156f565b91505061155a94506020925060ff191682840152151560051b820101388061154c565b6006546001600160a01b031633036115d657565b60405163118cdaa760e01b8152336004820152602490fd5b6001600160a01b039182169290918315610aab576000928284528260209560028752604096848888205416968791331515806116de575b509060027fddf252ad1be2c89b69c2b068fc378daa952ba7f163c4a11628f55a4df523b3ef92846116ab575b858352600381528b8320805460010190558683525289812080546001600160a01b0319168517905580a4169283830361168a5750505050565b6064945051926364283d7b60e01b8452600484015260248301526044820152fd5b600087815260046020526040902080546001600160a01b0319169055848352600381528b83208054600019019055611651565b91939450915080611733575b156116fa57859291879138611625565b878688611717576024915190637e27328960e01b82526004820152fd5b604491519063177e802f60e01b82523360048301526024820152fd5b503387148015611758575b806116ea57508582526004815233858984205416146116ea565b5086825260058152878220338352815260ff888320541661173e565b6000818152600260205260409020546001600160a01b0316908115611797575090565b60249060405190637e27328960e01b82526004820152fd5b90939192833b6117c1575b5050505050565b604051630a85bd0160e11b8082526001600160a01b03938416600483015295831660248201526044810191909152608060648201529492169260209291859061180e906084830190611391565b039483816000978189895af18691816118b9575b50611883575050503d60001461187a573d61183c81611471565b9061184a604051928361144f565b81528093823d92013e5b8251928361187557604051633250574960e11b815260048101849052602490fd5b019050fd5b60609250611854565b919450915063ffffffff60e01b16036118a1575038808080806117ba565b60249060405190633250574960e11b82526004820152fd5b9091508481813d83116118f6575b6118d1818361144f565b810103126118f257516001600160e01b0319811681036118f2579038611822565b8680fd5b503d6118c7565b600019811461190c5760010190565b634e487b7160e01b600052601160045260246000fd5b1561192957565b60405162461bcd60e51b8152602060048201526014602482015273151bdad95b88191bd95cc81b9bdd08195e1a5cdd60621b6044820152606490fd5b806000917a184f03e93ff9f4daa797ed6e38ed64bf6a1f01000000000000000080821015611abf575b506d04ee2d6d415b85acef810000000080831015611ab0575b50662386f26fc1000080831015611aa1575b506305f5e10080831015611a92575b5061271080831015611a83575b506064821015611a73575b600a80921015611a69575b600190816021818601956119fe87611471565b96611a0c604051988961144f565b808852611a1b601f1991611471565b01366020890137860101905b611a33575b5050505090565b600019019083906f181899199a1a9b1b9c1cb0b131b232b360811b8282061a835304918215611a6457919082611a27565b611a2c565b91600101916119eb565b91906064600291049101916119e0565b600491939204910191386119d5565b600891939204910191386119c8565b601091939204910191386119b9565b602091939204910191386119a7565b60409350810491503861198e565b908151811015611ade570160200190565b634e487b7160e01b600052603260045260246000fd5b6040805167ffffffffffffffff926001600160a01b0316919080820184811182821017610b84578252601081526020916f181899199a1a9b1b9c1cb0b131b232b360811b83830152805194606086019086821090821117610b84578152602a855282850190368237845115611ade5760309053835192600193841015611ade576078602186015360005b60148110611b8e57505050505090565b600c810180821161190c5784811015611ade5782901a60046001600160f81b0319600f81611bc085851c831689611acd565b511693858a1b94600290878704821488151715611c4057868201809211611c4057611bf5611bfd9493928e9260001a92611acd565b531687611acd565b5116906003928301809311611c2b575090611c20611c26939260001a9189611acd565b536118fd565b611b7e565b601190634e487b7160e01b6000525260246000fd5b601186634e487b7160e01b6000525260246000fdfea2646970667358221220e5f33cade0dd87d1afd1d2a05c063b942ed60946ca97cf540dae20a44b6801db64736f6c63430008140033",
  "linkReferences": {},
  "deployedLinkReferences": {}
}